{
  "address": "0xCf7Ed3AccA5a467e9e704C703E8D87F634fB0Fc9",
  "abi": [
    {
      "inputs": [
        {
          "internalType": "uint256",
          "name": "entranceFee",
          "type": "uint256"
        },
        {
          "internalType": "address",
          "name": "VRFCoordinatorV2",
          "type": "address"
        },
        {
          "internalType": "bytes32",
          "name": "gasLane",
          "type": "bytes32"
        },
        {
          "internalType": "uint64",
          "name": "subscriptionId",
          "type": "uint64"
        },
        {
          "internalType": "uint32",
          "name": "callbackGasLimit",
          "type": "uint32"
        }
      ],
      "stateMutability": "nonpayable",
      "type": "constructor"
    },
    {
      "inputs": [
        {
          "internalType": "address",
          "name": "have",
          "type": "address"
        },
        {
          "internalType": "address",
          "name": "want",
          "type": "address"
        }
      ],
      "name": "OnlyCoordinatorCanFulfill",
      "type": "error"
    },
    {
      "inputs": [],
      "name": "RangeOutOfBounds",
      "type": "error"
    },
    {
      "inputs": [],
      "name": "Roullete__NotEnoughEth",
      "type": "error"
    },
    {
      "inputs": [],
      "name": "Roullete_closed",
      "type": "error"
    },
    {
      "inputs": [],
      "name": "Roullete_transferFailed",
      "type": "error"
    },
    {
      "inputs": [
        {
          "internalType": "uint256",
          "name": "currentBalance",
          "type": "uint256"
        },
        {
          "internalType": "uint256",
          "name": "Bplayers",
          "type": "uint256"
        },
        {
          "internalType": "uint256",
          "name": "Rplayers",
          "type": "uint256"
        },
        {
          "internalType": "uint256",
          "name": "Gplayers",
          "type": "uint256"
        },
        {
          "internalType": "uint256",
          "name": "roulleteState",
          "type": "uint256"
        }
      ],
      "name": "Roullete_upKeepNotNeeded",
      "type": "error"
    },
    {
      "anonymous": false,
      "inputs": [
        {
          "indexed": true,
          "internalType": "address",
          "name": "player",
          "type": "address"
        }
      ],
      "name": "RoulleteEnter",
      "type": "event"
    },
    {
      "anonymous": false,
      "inputs": [
        {
          "indexed": true,
          "internalType": "uint256",
          "name": "requestId",
          "type": "uint256"
        }
      ],
      "name": "requestedRoulleteResult",
      "type": "event"
    },
    {
      "anonymous": false,
      "inputs": [
        {
          "indexed": true,
          "internalType": "address payable[]",
          "name": "winner",
          "type": "address[]"
        }
      ],
      "name": "winnerpicked",
      "type": "event"
    },
    {
      "inputs": [],
      "name": "amountOfWinners",
      "outputs": [
        {
          "internalType": "uint256",
          "name": "",
          "type": "uint256"
        }
      ],
      "stateMutability": "view",
      "type": "function"
    },
    {
      "inputs": [
        {
          "internalType": "bytes",
          "name": "",
          "type": "bytes"
        }
      ],
      "name": "checkUpkeep",
      "outputs": [
        {
          "internalType": "bool",
          "name": "upkeepNeeded",
          "type": "bool"
        },
        {
          "internalType": "bytes",
          "name": "",
          "type": "bytes"
        }
      ],
      "stateMutability": "view",
      "type": "function"
    },
    {
      "inputs": [],
      "name": "enterBlack",
      "outputs": [],
      "stateMutability": "payable",
      "type": "function"
    },
    {
      "inputs": [],
      "name": "enterGreen",
      "outputs": [],
      "stateMutability": "payable",
      "type": "function"
    },
    {
      "inputs": [],
      "name": "enterRed",
      "outputs": [],
      "stateMutability": "payable",
      "type": "function"
    },
    {
      "inputs": [
        {
          "internalType": "uint256",
          "name": "index",
          "type": "uint256"
        }
      ],
      "name": "getBlackPlayer",
      "outputs": [
        {
          "internalType": "address",
          "name": "",
          "type": "address"
        }
      ],
      "stateMutability": "view",
      "type": "function"
    },
    {
      "inputs": [],
      "name": "getChanceArray",
      "outputs": [
        {
          "internalType": "uint256[3]",
          "name": "",
          "type": "uint256[3]"
        }
      ],
      "stateMutability": "pure",
      "type": "function"
    },
    {
      "inputs": [],
      "name": "getEntraceFee",
      "outputs": [
        {
          "internalType": "uint256",
          "name": "",
          "type": "uint256"
        }
      ],
      "stateMutability": "view",
      "type": "function"
    },
    {
      "inputs": [
        {
          "internalType": "uint256",
          "name": "index",
          "type": "uint256"
        }
      ],
      "name": "getGreenPlayer",
      "outputs": [
        {
          "internalType": "address",
          "name": "",
          "type": "address"
        }
      ],
      "stateMutability": "view",
      "type": "function"
    },
    {
      "inputs": [],
      "name": "getInterval",
      "outputs": [
        {
          "internalType": "uint256",
          "name": "",
          "type": "uint256"
        }
      ],
      "stateMutability": "pure",
      "type": "function"
    },
    {
      "inputs": [],
      "name": "getLatestColor",
      "outputs": [
        {
          "internalType": "string",
          "name": "",
          "type": "string"
        }
      ],
      "stateMutability": "view",
      "type": "function"
    },
    {
      "inputs": [],
      "name": "getLatestTimeStamp",
      "outputs": [
        {
          "internalType": "uint256",
          "name": "",
          "type": "uint256"
        }
      ],
      "stateMutability": "view",
      "type": "function"
    },
    {
      "inputs": [],
      "name": "getNumWords",
      "outputs": [
        {
          "internalType": "uint256",
          "name": "",
          "type": "uint256"
        }
      ],
      "stateMutability": "pure",
      "type": "function"
    },
    {
      "inputs": [],
      "name": "getNumberOfPlayersOfBlack",
      "outputs": [
        {
          "internalType": "uint256",
          "name": "",
          "type": "uint256"
        }
      ],
      "stateMutability": "view",
      "type": "function"
    },
    {
      "inputs": [],
      "name": "getNumberOfPlayersOfGreen",
      "outputs": [
        {
          "internalType": "uint256",
          "name": "",
          "type": "uint256"
        }
      ],
      "stateMutability": "view",
      "type": "function"
    },
    {
      "inputs": [],
      "name": "getNumberOfPlayersOfRed",
      "outputs": [
        {
          "internalType": "uint256",
          "name": "",
          "type": "uint256"
        }
      ],
      "stateMutability": "view",
      "type": "function"
    },
    {
      "inputs": [
        {
          "internalType": "uint256",
          "name": "index",
          "type": "uint256"
        }
      ],
      "name": "getRecentWinners",
      "outputs": [
        {
          "internalType": "address",
          "name": "",
          "type": "address"
        }
      ],
      "stateMutability": "view",
      "type": "function"
    },
    {
      "inputs": [
        {
          "internalType": "uint256",
          "name": "index",
          "type": "uint256"
        }
      ],
      "name": "getRedPlayer",
      "outputs": [
        {
          "internalType": "address",
          "name": "",
          "type": "address"
        }
      ],
      "stateMutability": "view",
      "type": "function"
    },
    {
      "inputs": [],
      "name": "getRequestConfirmations",
      "outputs": [
        {
          "internalType": "uint256",
          "name": "",
          "type": "uint256"
        }
      ],
      "stateMutability": "pure",
      "type": "function"
    },
    {
      "inputs": [
        {
          "internalType": "uint256",
          "name": "chance",
          "type": "uint256"
        }
      ],
      "name": "getWinningBet",
      "outputs": [
        {
          "internalType": "enum Roullete.Bets",
          "name": "",
          "type": "uint8"
        }
      ],
      "stateMutability": "pure",
      "type": "function"
    },
    {
      "inputs": [],
      "name": "getgasLane",
      "outputs": [
        {
          "internalType": "bytes32",
          "name": "",
          "type": "bytes32"
        }
      ],
      "stateMutability": "view",
      "type": "function"
    },
    {
      "inputs": [],
      "name": "getroulletestate",
      "outputs": [
        {
          "internalType": "enum Roullete.RoulleteState",
          "name": "",
          "type": "uint8"
        }
      ],
      "stateMutability": "view",
      "type": "function"
    },
    {
      "inputs": [
        {
          "internalType": "bytes",
          "name": "",
          "type": "bytes"
        }
      ],
      "name": "performUpkeep",
      "outputs": [],
      "stateMutability": "nonpayable",
      "type": "function"
    },
    {
      "inputs": [
        {
          "internalType": "uint256",
          "name": "requestId",
          "type": "uint256"
        },
        {
          "internalType": "uint256[]",
          "name": "randomWords",
          "type": "uint256[]"
        }
      ],
      "name": "rawFulfillRandomWords",
      "outputs": [],
      "stateMutability": "nonpayable",
      "type": "function"
    },
    {
      "stateMutability": "payable",
      "type": "receive"
    }
  ],
  "transactionHash": "0xb1bfc5690e541e7452e2721f395477d00d3b97dc84c59652a52aa2fac407cbfc",
  "args": [
    "10000000000000000",
    "0x5FbDB2315678afecb367f032d93F642f64180aa3",
    "0x79d3d8832d904592c0bf9818b621522c988bb8b0c05cdc3b15aea1b6e8db0c15",
    "1",
    "500000"
  ],
  "numDeployments": 1,
  "solcInputHash": "0c2dbda109e8681e2ae2c23287d7c3ff",
  "bytecode": "0x6101406040526000805560405180602001604052806000815250600590805190602001906200003092919062000164565b503480156200003e57600080fd5b50604051620029e8380380620029e883398181016040528101906200006491906200037a565b838073ffffffffffffffffffffffffffffffffffffffff1660808173ffffffffffffffffffffffffffffffffffffffff1660601b81525050508460a081815250508373ffffffffffffffffffffffffffffffffffffffff1660c08173ffffffffffffffffffffffffffffffffffffffff1660601b815250508260e081815250508167ffffffffffffffff166101008167ffffffffffffffff1660c01b815250508063ffffffff166101208163ffffffff1660e01b815250506000600760006101000a81548160ff0219169083600181111562000145576200014462000402565b5b0217905550426004819055506003600081905550505050505062000496565b828054620001729062000460565b90600052602060002090601f016020900481019282620001965760008555620001e2565b82601f10620001b157805160ff1916838001178555620001e2565b82800160010185558215620001e2579182015b82811115620001e1578251825591602001919060010190620001c4565b5b509050620001f19190620001f5565b5090565b5b8082111562000210576000816000905550600101620001f6565b5090565b600080fd5b6000819050919050565b6200022e8162000219565b81146200023a57600080fd5b50565b6000815190506200024e8162000223565b92915050565b600073ffffffffffffffffffffffffffffffffffffffff82169050919050565b6000620002818262000254565b9050919050565b620002938162000274565b81146200029f57600080fd5b50565b600081519050620002b38162000288565b92915050565b6000819050919050565b620002ce81620002b9565b8114620002da57600080fd5b50565b600081519050620002ee81620002c3565b92915050565b600067ffffffffffffffff82169050919050565b6200031381620002f4565b81146200031f57600080fd5b50565b600081519050620003338162000308565b92915050565b600063ffffffff82169050919050565b620003548162000339565b81146200036057600080fd5b50565b600081519050620003748162000349565b92915050565b600080600080600060a0868803121562000399576200039862000214565b5b6000620003a9888289016200023d565b9550506020620003bc88828901620002a2565b9450506040620003cf88828901620002dd565b9350506060620003e28882890162000322565b9250506080620003f58882890162000363565b9150509295509295909350565b7f4e487b7100000000000000000000000000000000000000000000000000000000600052602160045260246000fd5b7f4e487b7100000000000000000000000000000000000000000000000000000000600052602260045260246000fd5b600060028204905060018216806200047957607f821691505b6020821081141562000490576200048f62000431565b5b50919050565b60805160601c60a05160c05160601c60e0516101005160c01c6101205160e01c6124d3620005156000396000610ab901526000610a96015260008181610a750152610fc701526000610a3901526000818161056b015281816107ef01528181610c7401526110370152600081816106e7015261073b01526124d36000f3fe60806040526004361061014f5760003560e01c80635dacf5f4116100b6578063c235615a1161006f578063c235615a14610443578063c5e1ae0e1461046e578063ca5953b214610499578063ce147cf3146104d6578063daebbd5514610501578063efc5f5371461052c57610156565b80635dacf5f41461032e5780635f1b0fd8146103595780636e04ff0d1461038457806371aff9a2146103c257806390e20b11146103ed57806391ad27b41461041857610156565b8063320229eb11610108578063320229eb1461022b5780634585e33b1461025657806350f1126b1461027f57806353a2c19a146102bc5780635541e758146102e75780635a319963146102f157610156565b806306170dea1461015b57806306b188b6146101655780631fe543e314610190578063247abaca146101b95780632bacb08b146101f65780632fd314841461020057610156565b3661015657005b600080fd5b610163610569565b005b34801561017157600080fd5b5061017a6106d8565b6040516101879190611836565b60405180910390f35b34801561019c57600080fd5b506101b760048036038101906101b291906119ea565b6106e5565b005b3480156101c557600080fd5b506101e060048036038101906101db9190611a46565b6107a5565b6040516101ed9190611ab4565b60405180910390f35b6101fe6107ed565b005b34801561020c57600080fd5b5061021561095c565b6040516102229190611836565b60405180910390f35b34801561023757600080fd5b50610240610969565b60405161024d9190611836565b60405180910390f35b34801561026257600080fd5b5061027d60048036038101906102789190611b2a565b610973565b005b34801561028b57600080fd5b506102a660048036038101906102a19190611a46565b610b81565b6040516102b39190611bee565b60405180910390f35b3480156102c857600080fd5b506102d1610c63565b6040516102de9190611836565b60405180910390f35b6102ef610c72565b005b3480156102fd57600080fd5b5061031860048036038101906103139190611a46565b610de1565b6040516103259190611ab4565b60405180910390f35b34801561033a57600080fd5b50610343610e29565b6040516103509190611cb4565b60405180910390f35b34801561036557600080fd5b5061036e610e54565b60405161037b9190611836565b60405180910390f35b34801561039057600080fd5b506103ab60048036038101906103a69190611d84565b610e61565b6040516103b9929190611e70565b60405180910390f35b3480156103ce57600080fd5b506103d7610f0e565b6040516103e49190611ef5565b60405180910390f35b3480156103f957600080fd5b50610402610fa0565b60405161040f9190611836565b60405180910390f35b34801561042457600080fd5b5061042d610fad565b60405161043a9190611836565b60405180910390f35b34801561044f57600080fd5b50610458610fb6565b6040516104659190611836565b60405180910390f35b34801561047a57600080fd5b50610483610fc3565b6040516104909190611f30565b60405180910390f35b3480156104a557600080fd5b506104c060048036038101906104bb9190611a46565b610feb565b6040516104cd9190611ab4565b60405180910390f35b3480156104e257600080fd5b506104eb611033565b6040516104f89190611836565b60405180910390f35b34801561050d57600080fd5b5061051661105b565b6040516105239190611f93565b60405180910390f35b34801561053857600080fd5b50610553600480360381019061054e9190611a46565b611072565b6040516105609190611ab4565b60405180910390f35b7f00000000000000000000000000000000000000000000000000000000000000003410156105c3576040517fecbc979a00000000000000000000000000000000000000000000000000000000815260040160405180910390fd5b600060018111156105d7576105d6611b77565b5b600760009054906101000a900460ff1660018111156105f9576105f8611b77565b5b14610630576040517fb0c6c11500000000000000000000000000000000000000000000000000000000815260040160405180910390fd5b6001339080600181540180825580915050600190039060005260206000200160009091909190916101000a81548173ffffffffffffffffffffffffffffffffffffffff021916908373ffffffffffffffffffffffffffffffffffffffff1602179055503373ffffffffffffffffffffffffffffffffffffffff167f9836af9e2b5272cced48d1370342a33fd92052e2ccf9452759d4a265f8e0710b60405160405180910390a2565b6000600380549050905090565b7f000000000000000000000000000000000000000000000000000000000000000073ffffffffffffffffffffffffffffffffffffffff163373ffffffffffffffffffffffffffffffffffffffff161461079757337f00000000000000000000000000000000000000000000000000000000000000006040517f1cf993f400000000000000000000000000000000000000000000000000000000815260040161078e929190611fae565b60405180910390fd5b6107a182826110ba565b5050565b6000600282815481106107bb576107ba611fd7565b5b9060005260206000200160009054906101000a900473ffffffffffffffffffffffffffffffffffffffff169050919050565b7f0000000000000000000000000000000000000000000000000000000000000000341015610847576040517fecbc979a00000000000000000000000000000000000000000000000000000000815260040160405180910390fd5b6000600181111561085b5761085a611b77565b5b600760009054906101000a900460ff16600181111561087d5761087c611b77565b5b146108b4576040517fb0c6c11500000000000000000000000000000000000000000000000000000000815260040160405180910390fd5b6003339080600181540180825580915050600190039060005260206000200160009091909190916101000a81548173ffffffffffffffffffffffffffffffffffffffff021916908373ffffffffffffffffffffffffffffffffffffffff1602179055503373ffffffffffffffffffffffffffffffffffffffff167f9836af9e2b5272cced48d1370342a33fd92052e2ccf9452759d4a265f8e0710b60405160405180910390a2565b6000600180549050905090565b6000600454905090565b600061098d60405180602001604052806000815250610e61565b50905080610a0a5747600380549050600180549050600280549050600760009054906101000a900460ff1660018111156109ca576109c9611b77565b5b6040517f90262e31000000000000000000000000000000000000000000000000000000008152600401610a01959493929190612006565b60405180910390fd5b6001600760006101000a81548160ff02191690836001811115610a3057610a2f611b77565b5b021790555060007f000000000000000000000000000000000000000000000000000000000000000073ffffffffffffffffffffffffffffffffffffffff16635d3b1d307f00000000000000000000000000000000000000000000000000000000000000007f000000000000000000000000000000000000000000000000000000000000000060037f000000000000000000000000000000000000000000000000000000000000000060016040518663ffffffff1660e01b8152600401610afa9594939291906120b8565b602060405180830381600087803b158015610b1457600080fd5b505af1158015610b28573d6000803e3d6000fd5b505050506040513d601f19601f82011682018060405250810190610b4c9190612120565b9050807f4ff16b3fc94bbf92ec93fec52025caadbcf9e22b038e9675c6dbdec0fe60c09060405160405180910390a250505050565b600080600090506000610b92610e29565b905060005b6003811015610c2b57828510158015610bd15750818160038110610bbe57610bbd611fd7565b5b602002015183610bce919061217c565b85105b15610bf357806002811115610be957610be8611b77565b5b9350505050610c5e565b818160038110610c0657610c05611fd7565b5b602002015183610c16919061217c565b92508080610c23906121d2565b915050610b97565b506040517f0655dc2500000000000000000000000000000000000000000000000000000000815260040160405180910390fd5b919050565b6000600163ffffffff16905090565b7f0000000000000000000000000000000000000000000000000000000000000000341015610ccc576040517fecbc979a00000000000000000000000000000000000000000000000000000000815260040160405180910390fd5b60006001811115610ce057610cdf611b77565b5b600760009054906101000a900460ff166001811115610d0257610d01611b77565b5b14610d39576040517fb0c6c11500000000000000000000000000000000000000000000000000000000815260040160405180910390fd5b6002339080600181540180825580915050600190039060005260206000200160009091909190916101000a81548173ffffffffffffffffffffffffffffffffffffffff021916908373ffffffffffffffffffffffffffffffffffffffff1602179055503373ffffffffffffffffffffffffffffffffffffffff167f9836af9e2b5272cced48d1370342a33fd92052e2ccf9452759d4a265f8e0710b60405160405180910390a2565b600060018281548110610df757610df6611fd7565b5b9060005260206000200160009054906101000a900473ffffffffffffffffffffffffffffffffffffffff169050919050565b610e3161167c565b604051806060016040528060318152602001603181526020016064815250905090565b6000600361ffff16905090565b600060606000806001811115610e7a57610e79611b77565b5b600760009054906101000a900460ff166001811115610e9c57610e9b611b77565b5b1490506000601e60045442610eb1919061221b565b1190506000806003805490501180610ece57506000600180549050115b80610ede57506000600280549050115b905060008047119050838015610ef15750825b8015610efa5750815b8015610f035750805b955050505050915091565b606060058054610f1d9061227e565b80601f0160208091040260200160405190810160405280929190818152602001828054610f499061227e565b8015610f965780601f10610f6b57610100808354040283529160200191610f96565b820191906000526020600020905b815481529060010190602001808311610f7957829003601f168201915b5050505050905090565b6000600680549050905090565b6000601e905090565b6000600280549050905090565b60007f0000000000000000000000000000000000000000000000000000000000000000905090565b60006003828154811061100157611000611fd7565b5b9060005260206000200160009054906101000a900473ffffffffffffffffffffffffffffffffffffffff169050919050565b60007f0000000000000000000000000000000000000000000000000000000000000000905090565b6000600760009054906101000a900460ff16905090565b60006006828154811061108857611087611fd7565b5b9060005260206000200160009054906101000a900473ffffffffffffffffffffffffffffffffffffffff169050919050565b60006064826000815181106110d2576110d1611fd7565b5b60200260200101516110e491906122df565b905060006110f182610b81565b90506000600281111561110757611106611b77565b5b81600281111561111a57611119611b77565b5b1415611140576001600690805461113292919061169e565b5060026000819055506111a9565b6001600281111561115457611153611b77565b5b81600281111561116757611166611b77565b5b141561118d576003600690805461117f92919061169e565b5060016000819055506111a8565b6002600690805461119f92919061169e565b50600080819055505b5b42600481905550600067ffffffffffffffff8111156111cb576111ca6118a7565b5b6040519080825280602002602001820160405280156111f95781602001602082028036833780820191505090505b506001908051906020019061120f9291906116f0565b50600067ffffffffffffffff81111561122b5761122a6118a7565b5b6040519080825280602002602001820160405280156112595781602001602082028036833780820191505090505b506003908051906020019061126f9291906116f0565b50600067ffffffffffffffff81111561128b5761128a6118a7565b5b6040519080825280602002602001820160405280156112b95781602001602082028036833780820191505090505b50600290805190602001906112cf9291906116f0565b5060008054141561132b576040518060400160405280600581526020017f475245454e0000000000000000000000000000000000000000000000000000008152506005908051906020019061132592919061177a565b506113d5565b60016000541415611387576040518060400160405280600581526020017f424c41434b0000000000000000000000000000000000000000000000000000008152506005908051906020019061138192919061177a565b506113d4565b6040518060400160405280600381526020017f5245440000000000000000000000000000000000000000000000000000000000815250600590805190602001906113d292919061177a565b505b5b6000805414156114f25760005b6006805490508110156114ec5760006006828154811061140557611404611fd7565b5b9060005260206000200160009054906101000a900473ffffffffffffffffffffffffffffffffffffffff1673ffffffffffffffffffffffffffffffffffffffff166701f161421c8e000060405161145b90612341565b60006040518083038185875af1925050503d8060008114611498576040519150601f19603f3d011682016040523d82523d6000602084013e61149d565b606091505b50509050806114d8576040517f0d34c7ce00000000000000000000000000000000000000000000000000000000815260040160405180910390fd5b5080806114e4906121d2565b9150506113e2565b50611600565b60005b6006805490508110156115fe5760006006828154811061151857611517611fd7565b5b9060005260206000200160009054906101000a900473ffffffffffffffffffffffffffffffffffffffff1673ffffffffffffffffffffffffffffffffffffffff1666470de4df82000060405161156d90612341565b60006040518083038185875af1925050503d80600081146115aa576040519150601f19603f3d011682016040523d82523d6000602084013e6115af565b606091505b50509050806115ea576040517f0d34c7ce00000000000000000000000000000000000000000000000000000000815260040160405180910390fd5b5080806115f6906121d2565b9150506114f5565b505b600660405161160f9190612486565b60405180910390207f80624e43dc2be5bdb3a00067a406d64c2632d004437308e62c32f3b97790dd8260405160405180910390a26000600760006101000a81548160ff0219169083600181111561166957611668611b77565b5b0217905550600360008190555050505050565b6040518060600160405280600390602082028036833780820191505090505090565b8280548282559060005260206000209081019282156116df5760005260206000209182015b828111156116de5782548255916001019190600101906116c3565b5b5090506116ec9190611800565b5090565b828054828255906000526020600020908101928215611769579160200282015b828111156117685782518260006101000a81548173ffffffffffffffffffffffffffffffffffffffff021916908373ffffffffffffffffffffffffffffffffffffffff16021790555091602001919060010190611710565b5b5090506117769190611800565b5090565b8280546117869061227e565b90600052602060002090601f0160209004810192826117a857600085556117ef565b82601f106117c157805160ff19168380011785556117ef565b828001600101855582156117ef579182015b828111156117ee5782518255916020019190600101906117d3565b5b5090506117fc9190611800565b5090565b5b80821115611819576000816000905550600101611801565b5090565b6000819050919050565b6118308161181d565b82525050565b600060208201905061184b6000830184611827565b92915050565b6000604051905090565b600080fd5b600080fd5b61186e8161181d565b811461187957600080fd5b50565b60008135905061188b81611865565b92915050565b600080fd5b6000601f19601f8301169050919050565b7f4e487b7100000000000000000000000000000000000000000000000000000000600052604160045260246000fd5b6118df82611896565b810181811067ffffffffffffffff821117156118fe576118fd6118a7565b5b80604052505050565b6000611911611851565b905061191d82826118d6565b919050565b600067ffffffffffffffff82111561193d5761193c6118a7565b5b602082029050602081019050919050565b600080fd5b600061196661196184611922565b611907565b905080838252602082019050602084028301858111156119895761198861194e565b5b835b818110156119b2578061199e888261187c565b84526020840193505060208101905061198b565b5050509392505050565b600082601f8301126119d1576119d0611891565b5b81356119e1848260208601611953565b91505092915050565b60008060408385031215611a0157611a0061185b565b5b6000611a0f8582860161187c565b925050602083013567ffffffffffffffff811115611a3057611a2f611860565b5b611a3c858286016119bc565b9150509250929050565b600060208284031215611a5c57611a5b61185b565b5b6000611a6a8482850161187c565b91505092915050565b600073ffffffffffffffffffffffffffffffffffffffff82169050919050565b6000611a9e82611a73565b9050919050565b611aae81611a93565b82525050565b6000602082019050611ac96000830184611aa5565b92915050565b600080fd5b60008083601f840112611aea57611ae9611891565b5b8235905067ffffffffffffffff811115611b0757611b06611acf565b5b602083019150836001820283011115611b2357611b2261194e565b5b9250929050565b60008060208385031215611b4157611b4061185b565b5b600083013567ffffffffffffffff811115611b5f57611b5e611860565b5b611b6b85828601611ad4565b92509250509250929050565b7f4e487b7100000000000000000000000000000000000000000000000000000000600052602160045260246000fd5b60038110611bb757611bb6611b77565b5b50565b6000819050611bc882611ba6565b919050565b6000611bd882611bba565b9050919050565b611be881611bcd565b82525050565b6000602082019050611c036000830184611bdf565b92915050565b600060039050919050565b600081905092915050565b6000819050919050565b611c328161181d565b82525050565b6000611c448383611c29565b60208301905092915050565b6000602082019050919050565b611c6681611c09565b611c708184611c14565b9250611c7b82611c1f565b8060005b83811015611cac578151611c938782611c38565b9650611c9e83611c50565b925050600181019050611c7f565b505050505050565b6000606082019050611cc96000830184611c5d565b92915050565b600080fd5b600067ffffffffffffffff821115611cef57611cee6118a7565b5b611cf882611896565b9050602081019050919050565b82818337600083830152505050565b6000611d27611d2284611cd4565b611907565b905082815260208101848484011115611d4357611d42611ccf565b5b611d4e848285611d05565b509392505050565b600082601f830112611d6b57611d6a611891565b5b8135611d7b848260208601611d14565b91505092915050565b600060208284031215611d9a57611d9961185b565b5b600082013567ffffffffffffffff811115611db857611db7611860565b5b611dc484828501611d56565b91505092915050565b60008115159050919050565b611de281611dcd565b82525050565b600081519050919050565b600082825260208201905092915050565b60005b83811015611e22578082015181840152602081019050611e07565b83811115611e31576000848401525b50505050565b6000611e4282611de8565b611e4c8185611df3565b9350611e5c818560208601611e04565b611e6581611896565b840191505092915050565b6000604082019050611e856000830185611dd9565b8181036020830152611e978184611e37565b90509392505050565b600081519050919050565b600082825260208201905092915050565b6000611ec782611ea0565b611ed18185611eab565b9350611ee1818560208601611e04565b611eea81611896565b840191505092915050565b60006020820190508181036000830152611f0f8184611ebc565b905092915050565b6000819050919050565b611f2a81611f17565b82525050565b6000602082019050611f456000830184611f21565b92915050565b60028110611f5c57611f5b611b77565b5b50565b6000819050611f6d82611f4b565b919050565b6000611f7d82611f5f565b9050919050565b611f8d81611f72565b82525050565b6000602082019050611fa86000830184611f84565b92915050565b6000604082019050611fc36000830185611aa5565b611fd06020830184611aa5565b9392505050565b7f4e487b7100000000000000000000000000000000000000000000000000000000600052603260045260246000fd5b600060a08201905061201b6000830188611827565b6120286020830187611827565b6120356040830186611827565b6120426060830185611827565b61204f6080830184611827565b9695505050505050565b600067ffffffffffffffff82169050919050565b61207681612059565b82525050565b600061ffff82169050919050565b6120938161207c565b82525050565b600063ffffffff82169050919050565b6120b281612099565b82525050565b600060a0820190506120cd6000830188611f21565b6120da602083018761206d565b6120e7604083018661208a565b6120f460608301856120a9565b61210160808301846120a9565b9695505050505050565b60008151905061211a81611865565b92915050565b6000602082840312156121365761213561185b565b5b60006121448482850161210b565b91505092915050565b7f4e487b7100000000000000000000000000000000000000000000000000000000600052601160045260246000fd5b60006121878261181d565b91506121928361181d565b9250827fffffffffffffffffffffffffffffffffffffffffffffffffffffffffffffffff038211156121c7576121c661214d565b5b828201905092915050565b60006121dd8261181d565b91507fffffffffffffffffffffffffffffffffffffffffffffffffffffffffffffffff8214156122105761220f61214d565b5b600182019050919050565b60006122268261181d565b91506122318361181d565b9250828210156122445761224361214d565b5b828203905092915050565b7f4e487b7100000000000000000000000000000000000000000000000000000000600052602260045260246000fd5b6000600282049050600182168061229657607f821691505b602082108114156122aa576122a961224f565b5b50919050565b7f4e487b7100000000000000000000000000000000000000000000000000000000600052601260045260246000fd5b60006122ea8261181d565b91506122f58361181d565b925082612305576123046122b0565b5b828206905092915050565b600081905092915050565b50565b600061232b600083612310565b91506123368261231b565b600082019050919050565b600061234c8261231e565b9150819050919050565b600081549050919050565b600081905092915050565b60008190508160005260206000209050919050565b600061238c82611a73565b9050919050565b61239c81612381565b82525050565b60006123ae8383612393565b60208301905092915050565b60008160001c9050919050565b600073ffffffffffffffffffffffffffffffffffffffff82169050919050565b60006123fa6123f5836123ba565b6123c7565b9050919050565b600061240d82546123e7565b9050919050565b6000600182019050919050565b600061242c82612356565b6124368185612361565b93506124418361236c565b8060005b838110156124795761245682612401565b61246088826123a2565b975061246b83612414565b925050600181019050612445565b5085935050505092915050565b60006124928284612421565b91508190509291505056fea26469706673582212201d93522b1e50b253c2304d86b9f263887a19bbedb27d8ca4a01e908bd5cd996a64736f6c63430008080033",
  "devdoc": {
    "kind": "dev",
    "methods": {
      "checkUpkeep(bytes)": {
        "details": "alex kang  this is the function chainlink keeper calls, they look for the upkeepneeded  the following should be true in order to return true 1. TIME INTERVAL SHOULD BE PASSED 2. lottery should have at least 1 player and some eth  3.subscription funded with LINK 4. LOTTERY should be in an \"open\" state --> when we are waiting for the number to get back we are in a closed state "
      }
    },
    "version": 1
  },
  "userdoc": {
    "kind": "user",
    "methods": {},
    "version": 1
  },
  "storageLayout": {
    "storage": [
      {
        "astId": 236,
        "contract": "contracts/Roullete.sol:Roullete",
        "label": "color",
        "offset": 0,
        "slot": "0",
        "type": "t_uint256"
      },
      {
        "astId": 248,
        "contract": "contracts/Roullete.sol:Roullete",
        "label": "s_RedPlayers",
        "offset": 0,
        "slot": "1",
        "type": "t_array(t_address_payable)dyn_storage"
      },
      {
        "astId": 251,
        "contract": "contracts/Roullete.sol:Roullete",
        "label": "s_GreenPlayers",
        "offset": 0,
        "slot": "2",
        "type": "t_array(t_address_payable)dyn_storage"
      },
      {
        "astId": 254,
        "contract": "contracts/Roullete.sol:Roullete",
        "label": "s_BlackPlayers",
        "offset": 0,
        "slot": "3",
        "type": "t_array(t_address_payable)dyn_storage"
      },
      {
        "astId": 271,
        "contract": "contracts/Roullete.sol:Roullete",
        "label": "s_lastTimeStamp",
        "offset": 0,
        "slot": "4",
        "type": "t_uint256"
      },
      {
        "astId": 293,
        "contract": "contracts/Roullete.sol:Roullete",
        "label": "lastColor",
        "offset": 0,
        "slot": "5",
        "type": "t_string_storage"
      },
      {
        "astId": 296,
        "contract": "contracts/Roullete.sol:Roullete",
        "label": "s_recentWinners",
        "offset": 0,
        "slot": "6",
        "type": "t_array(t_address_payable)dyn_storage"
      },
      {
        "astId": 299,
        "contract": "contracts/Roullete.sol:Roullete",
        "label": "s_roulleteState",
        "offset": 0,
        "slot": "7",
        "type": "t_enum(RoulleteState)239"
      }
    ],
    "types": {
      "t_address_payable": {
        "encoding": "inplace",
        "label": "address payable",
        "numberOfBytes": "20"
      },
      "t_array(t_address_payable)dyn_storage": {
        "base": "t_address_payable",
        "encoding": "dynamic_array",
        "label": "address payable[]",
        "numberOfBytes": "32"
      },
      "t_enum(RoulleteState)239": {
        "encoding": "inplace",
        "label": "enum Roullete.RoulleteState",
        "numberOfBytes": "1"
      },
      "t_string_storage": {
        "encoding": "bytes",
        "label": "string",
        "numberOfBytes": "32"
      },
      "t_uint256": {
        "encoding": "inplace",
        "label": "uint256",
        "numberOfBytes": "32"
      }
    }
  }
}