{
  "_format": "hh-sol-artifact-1",
  "contractName": "Roullete",
  "sourceName": "contracts/Roullete.sol",
  "abi": [
    {
      "inputs": [
        {
          "internalType": "uint256",
          "name": "entranceFee",
          "type": "uint256"
        },
        {
          "internalType": "address",
          "name": "VRFCoordinatorV2",
          "type": "address"
        },
        {
          "internalType": "bytes32",
          "name": "gasLane",
          "type": "bytes32"
        },
        {
          "internalType": "uint64",
          "name": "subscriptionId",
          "type": "uint64"
        },
        {
          "internalType": "uint32",
          "name": "callbackGasLimit",
          "type": "uint32"
        }
      ],
      "stateMutability": "nonpayable",
      "type": "constructor"
    },
    {
      "inputs": [
        {
          "internalType": "address",
          "name": "have",
          "type": "address"
        },
        {
          "internalType": "address",
          "name": "want",
          "type": "address"
        }
      ],
      "name": "OnlyCoordinatorCanFulfill",
      "type": "error"
    },
    {
      "inputs": [],
      "name": "RangeOutOfBounds",
      "type": "error"
    },
    {
      "inputs": [],
      "name": "Roullete__NotEnoughEth",
      "type": "error"
    },
    {
      "inputs": [],
      "name": "Roullete_closed",
      "type": "error"
    },
    {
      "inputs": [],
      "name": "Roullete_transferFailed",
      "type": "error"
    },
    {
      "inputs": [
        {
          "internalType": "uint256",
          "name": "currentBalance",
          "type": "uint256"
        },
        {
          "internalType": "uint256",
          "name": "Bplayers",
          "type": "uint256"
        },
        {
          "internalType": "uint256",
          "name": "Rplayers",
          "type": "uint256"
        },
        {
          "internalType": "uint256",
          "name": "Gplayers",
          "type": "uint256"
        },
        {
          "internalType": "uint256",
          "name": "roulleteState",
          "type": "uint256"
        }
      ],
      "name": "Roullete_upKeepNotNeeded",
      "type": "error"
    },
    {
      "anonymous": false,
      "inputs": [
        {
          "indexed": true,
          "internalType": "address",
          "name": "player",
          "type": "address"
        }
      ],
      "name": "RoulleteEnter",
      "type": "event"
    },
    {
      "anonymous": false,
      "inputs": [
        {
          "indexed": true,
          "internalType": "uint256",
          "name": "requestId",
          "type": "uint256"
        }
      ],
      "name": "requestedRoulleteResult",
      "type": "event"
    },
    {
      "anonymous": false,
      "inputs": [
        {
          "indexed": true,
          "internalType": "address payable[]",
          "name": "winner",
          "type": "address[]"
        }
      ],
      "name": "winnerpicked",
      "type": "event"
    },
    {
      "inputs": [
        {
          "internalType": "bytes",
          "name": "",
          "type": "bytes"
        }
      ],
      "name": "checkUpkeep",
      "outputs": [
        {
          "internalType": "bool",
          "name": "upkeepNeeded",
          "type": "bool"
        },
        {
          "internalType": "bytes",
          "name": "",
          "type": "bytes"
        }
      ],
      "stateMutability": "view",
      "type": "function"
    },
    {
      "inputs": [],
      "name": "enterBlack",
      "outputs": [],
      "stateMutability": "payable",
      "type": "function"
    },
    {
      "inputs": [],
      "name": "enterGreen",
      "outputs": [],
      "stateMutability": "payable",
      "type": "function"
    },
    {
      "inputs": [],
      "name": "enterRed",
      "outputs": [],
      "stateMutability": "payable",
      "type": "function"
    },
    {
      "inputs": [
        {
          "internalType": "uint256",
          "name": "index",
          "type": "uint256"
        }
      ],
      "name": "getBlackPlayer",
      "outputs": [
        {
          "internalType": "address",
          "name": "",
          "type": "address"
        }
      ],
      "stateMutability": "view",
      "type": "function"
    },
    {
      "inputs": [],
      "name": "getChanceArray",
      "outputs": [
        {
          "internalType": "uint256[3]",
          "name": "",
          "type": "uint256[3]"
        }
      ],
      "stateMutability": "pure",
      "type": "function"
    },
    {
      "inputs": [],
      "name": "getEntraceFee",
      "outputs": [
        {
          "internalType": "uint256",
          "name": "",
          "type": "uint256"
        }
      ],
      "stateMutability": "view",
      "type": "function"
    },
    {
      "inputs": [
        {
          "internalType": "uint256",
          "name": "index",
          "type": "uint256"
        }
      ],
      "name": "getGreenPlayer",
      "outputs": [
        {
          "internalType": "address",
          "name": "",
          "type": "address"
        }
      ],
      "stateMutability": "view",
      "type": "function"
    },
    {
      "inputs": [],
      "name": "getInterval",
      "outputs": [
        {
          "internalType": "uint256",
          "name": "",
          "type": "uint256"
        }
      ],
      "stateMutability": "pure",
      "type": "function"
    },
    {
      "inputs": [],
      "name": "getLatestTimeStamp",
      "outputs": [
        {
          "internalType": "uint256",
          "name": "",
          "type": "uint256"
        }
      ],
      "stateMutability": "view",
      "type": "function"
    },
    {
      "inputs": [],
      "name": "getNumWords",
      "outputs": [
        {
          "internalType": "uint256",
          "name": "",
          "type": "uint256"
        }
      ],
      "stateMutability": "pure",
      "type": "function"
    },
    {
      "inputs": [],
      "name": "getNumberOfPlayersOfBlack",
      "outputs": [
        {
          "internalType": "uint256",
          "name": "",
          "type": "uint256"
        }
      ],
      "stateMutability": "view",
      "type": "function"
    },
    {
      "inputs": [],
      "name": "getNumberOfPlayersOfGreen",
      "outputs": [
        {
          "internalType": "uint256",
          "name": "",
          "type": "uint256"
        }
      ],
      "stateMutability": "view",
      "type": "function"
    },
    {
      "inputs": [],
      "name": "getNumberOfPlayersOfRed",
      "outputs": [
        {
          "internalType": "uint256",
          "name": "",
          "type": "uint256"
        }
      ],
      "stateMutability": "view",
      "type": "function"
    },
    {
      "inputs": [],
      "name": "getRecentWinners",
      "outputs": [
        {
          "internalType": "address payable[]",
          "name": "",
          "type": "address[]"
        }
      ],
      "stateMutability": "view",
      "type": "function"
    },
    {
      "inputs": [
        {
          "internalType": "uint256",
          "name": "index",
          "type": "uint256"
        }
      ],
      "name": "getRedPlayer",
      "outputs": [
        {
          "internalType": "address",
          "name": "",
          "type": "address"
        }
      ],
      "stateMutability": "view",
      "type": "function"
    },
    {
      "inputs": [],
      "name": "getRequestConfirmations",
      "outputs": [
        {
          "internalType": "uint256",
          "name": "",
          "type": "uint256"
        }
      ],
      "stateMutability": "pure",
      "type": "function"
    },
    {
      "inputs": [
        {
          "internalType": "uint256",
          "name": "chance",
          "type": "uint256"
        }
      ],
      "name": "getWinningBet",
      "outputs": [
        {
          "internalType": "enum Roullete.Bets",
          "name": "",
          "type": "uint8"
        }
      ],
      "stateMutability": "pure",
      "type": "function"
    },
    {
      "inputs": [],
      "name": "getgasLane",
      "outputs": [
        {
          "internalType": "bytes32",
          "name": "",
          "type": "bytes32"
        }
      ],
      "stateMutability": "view",
      "type": "function"
    },
    {
      "inputs": [],
      "name": "getroulletestate",
      "outputs": [
        {
          "internalType": "enum Roullete.RoulleteState",
          "name": "",
          "type": "uint8"
        }
      ],
      "stateMutability": "view",
      "type": "function"
    },
    {
      "inputs": [
        {
          "internalType": "bytes",
          "name": "",
          "type": "bytes"
        }
      ],
      "name": "performUpkeep",
      "outputs": [],
      "stateMutability": "nonpayable",
      "type": "function"
    },
    {
      "inputs": [
        {
          "internalType": "uint256",
          "name": "requestId",
          "type": "uint256"
        },
        {
          "internalType": "uint256[]",
          "name": "randomWords",
          "type": "uint256[]"
        }
      ],
      "name": "rawFulfillRandomWords",
      "outputs": [],
      "stateMutability": "nonpayable",
      "type": "function"
    }
  ],
  "bytecode": "0x6101406040523480156200001257600080fd5b50604051620024e3380380620024e383398181016040528101906200003891906200028a565b838073ffffffffffffffffffffffffffffffffffffffff1660808173ffffffffffffffffffffffffffffffffffffffff1681525050508460a081815250508373ffffffffffffffffffffffffffffffffffffffff1660c08173ffffffffffffffffffffffffffffffffffffffff16815250508260e081815250508167ffffffffffffffff166101008167ffffffffffffffff16815250508063ffffffff166101208163ffffffff16815250506000600560006101000a81548160ff021916908360018111156200010d576200010c62000312565b5b021790555042600381905550505050505062000341565b600080fd5b6000819050919050565b6200013e8162000129565b81146200014a57600080fd5b50565b6000815190506200015e8162000133565b92915050565b600073ffffffffffffffffffffffffffffffffffffffff82169050919050565b6000620001918262000164565b9050919050565b620001a38162000184565b8114620001af57600080fd5b50565b600081519050620001c38162000198565b92915050565b6000819050919050565b620001de81620001c9565b8114620001ea57600080fd5b50565b600081519050620001fe81620001d3565b92915050565b600067ffffffffffffffff82169050919050565b620002238162000204565b81146200022f57600080fd5b50565b600081519050620002438162000218565b92915050565b600063ffffffff82169050919050565b620002648162000249565b81146200027057600080fd5b50565b600081519050620002848162000259565b92915050565b600080600080600060a08688031215620002a957620002a862000124565b5b6000620002b9888289016200014d565b9550506020620002cc88828901620001b2565b9450506040620002df88828901620001ed565b9350506060620002f28882890162000232565b9250506080620003058882890162000273565b9150509295509295909350565b7f4e487b7100000000000000000000000000000000000000000000000000000000600052602160045260246000fd5b60805160a05160c05160e051610100516101205161212f620003b46000396000610a2e01526000610a0b0152600081816109ea0152610e9c015260006109ae0152600081816104e20152818161076501528181610be90152610f0c01526000818161065e01526106b2015261212f6000f3fe6080604052600436106101355760003560e01c80635a319963116100ab578063c235615a1161006f578063c235615a146103cc578063c5e1ae0e146103f7578063ca5953b214610422578063ce147cf31461045f578063daebbd551461048a578063f077b974146104b557610135565b80635a319963146102d05780635dacf5f41461030d5780635f1b0fd8146103385780636e04ff0d1461036357806391ad27b4146103a157610135565b80632fd31484116100fd5780632fd31484146101df578063320229eb1461020a5780634585e33b1461023557806350f1126b1461025e57806353a2c19a1461029b5780635541e758146102c657610135565b806306170dea1461013a57806306b188b6146101445780631fe543e31461016f578063247abaca146101985780632bacb08b146101d5575b600080fd5b6101426104e0565b005b34801561015057600080fd5b5061015961064f565b604051610166919061148a565b60405180910390f35b34801561017b57600080fd5b506101966004803603810190610191919061163e565b61065c565b005b3480156101a457600080fd5b506101bf60048036038101906101ba919061169a565b61071c565b6040516101cc9190611708565b60405180910390f35b6101dd610763565b005b3480156101eb57600080fd5b506101f46108d2565b604051610201919061148a565b60405180910390f35b34801561021657600080fd5b5061021f6108de565b60405161022c919061148a565b60405180910390f35b34801561024157600080fd5b5061025c6004803603810190610257919061177e565b6108e8565b005b34801561026a57600080fd5b506102856004803603810190610280919061169a565b610af6565b6040516102929190611842565b60405180910390f35b3480156102a757600080fd5b506102b0610bd8565b6040516102bd919061148a565b60405180910390f35b6102ce610be7565b005b3480156102dc57600080fd5b506102f760048036038101906102f2919061169a565b610d56565b6040516103049190611708565b60405180910390f35b34801561031957600080fd5b50610322610d9e565b60405161032f9190611908565b60405180910390f35b34801561034457600080fd5b5061034d610dc9565b60405161035a919061148a565b60405180910390f35b34801561036f57600080fd5b5061038a600480360381019061038591906119d8565b610dd6565b604051610398929190611ac4565b60405180910390f35b3480156103ad57600080fd5b506103b6610e82565b6040516103c3919061148a565b60405180910390f35b3480156103d857600080fd5b506103e1610e8b565b6040516103ee919061148a565b60405180910390f35b34801561040357600080fd5b5061040c610e98565b6040516104199190611b0d565b60405180910390f35b34801561042e57600080fd5b506104496004803603810190610444919061169a565b610ec0565b6040516104569190611708565b60405180910390f35b34801561046b57600080fd5b50610474610f08565b604051610481919061148a565b60405180910390f35b34801561049657600080fd5b5061049f610f30565b6040516104ac9190611b70565b60405180910390f35b3480156104c157600080fd5b506104ca610f47565b6040516104d79190611c5b565b60405180910390f35b7f000000000000000000000000000000000000000000000000000000000000000034101561053a576040517fecbc979a00000000000000000000000000000000000000000000000000000000815260040160405180910390fd5b6000600181111561054e5761054d6117cb565b5b600560009054906101000a900460ff1660018111156105705761056f6117cb565b5b146105a7576040517fb0c6c11500000000000000000000000000000000000000000000000000000000815260040160405180910390fd5b6000339080600181540180825580915050600190039060005260206000200160009091909190916101000a81548173ffffffffffffffffffffffffffffffffffffffff021916908373ffffffffffffffffffffffffffffffffffffffff1602179055503373ffffffffffffffffffffffffffffffffffffffff167f9836af9e2b5272cced48d1370342a33fd92052e2ccf9452759d4a265f8e0710b60405160405180910390a2565b6000600280549050905090565b7f000000000000000000000000000000000000000000000000000000000000000073ffffffffffffffffffffffffffffffffffffffff163373ffffffffffffffffffffffffffffffffffffffff161461070e57337f00000000000000000000000000000000000000000000000000000000000000006040517f1cf993f4000000000000000000000000000000000000000000000000000000008152600401610705929190611c7d565b60405180910390fd5b6107188282610fd5565b5050565b600080828154811061073157610730611ca6565b5b9060005260206000200160009054906101000a900473ffffffffffffffffffffffffffffffffffffffff169050919050565b7f00000000000000000000000000000000000000000000000000000000000000003410156107bd576040517fecbc979a00000000000000000000000000000000000000000000000000000000815260040160405180910390fd5b600060018111156107d1576107d06117cb565b5b600560009054906101000a900460ff1660018111156107f3576107f26117cb565b5b1461082a576040517fb0c6c11500000000000000000000000000000000000000000000000000000000815260040160405180910390fd5b6002339080600181540180825580915050600190039060005260206000200160009091909190916101000a81548173ffffffffffffffffffffffffffffffffffffffff021916908373ffffffffffffffffffffffffffffffffffffffff1602179055503373ffffffffffffffffffffffffffffffffffffffff167f9836af9e2b5272cced48d1370342a33fd92052e2ccf9452759d4a265f8e0710b60405160405180910390a2565b60008080549050905090565b6000600354905090565b600061090260405180602001604052806000815250610dd6565b5090508061097f5747600280549050600080549050600180549050600560009054906101000a900460ff16600181111561093f5761093e6117cb565b5b6040517f90262e31000000000000000000000000000000000000000000000000000000008152600401610976959493929190611cd5565b60405180910390fd5b6001600560006101000a81548160ff021916908360018111156109a5576109a46117cb565b5b021790555060007f000000000000000000000000000000000000000000000000000000000000000073ffffffffffffffffffffffffffffffffffffffff16635d3b1d307f00000000000000000000000000000000000000000000000000000000000000007f000000000000000000000000000000000000000000000000000000000000000060037f000000000000000000000000000000000000000000000000000000000000000060016040518663ffffffff1660e01b8152600401610a6f959493929190611d87565b602060405180830381600087803b158015610a8957600080fd5b505af1158015610a9d573d6000803e3d6000fd5b505050506040513d601f19601f82011682018060405250810190610ac19190611def565b9050807f4ff16b3fc94bbf92ec93fec52025caadbcf9e22b038e9675c6dbdec0fe60c09060405160405180910390a250505050565b600080600090506000610b07610d9e565b905060005b6003811015610ba057828510158015610b465750818160038110610b3357610b32611ca6565b5b602002015183610b439190611e4b565b85105b15610b6857806002811115610b5e57610b5d6117cb565b5b9350505050610bd3565b818160038110610b7b57610b7a611ca6565b5b602002015183610b8b9190611e4b565b92508080610b9890611ea1565b915050610b0c565b506040517f0655dc2500000000000000000000000000000000000000000000000000000000815260040160405180910390fd5b919050565b6000600163ffffffff16905090565b7f0000000000000000000000000000000000000000000000000000000000000000341015610c41576040517fecbc979a00000000000000000000000000000000000000000000000000000000815260040160405180910390fd5b60006001811115610c5557610c546117cb565b5b600560009054906101000a900460ff166001811115610c7757610c766117cb565b5b14610cae576040517fb0c6c11500000000000000000000000000000000000000000000000000000000815260040160405180910390fd5b6001339080600181540180825580915050600190039060005260206000200160009091909190916101000a81548173ffffffffffffffffffffffffffffffffffffffff021916908373ffffffffffffffffffffffffffffffffffffffff1602179055503373ffffffffffffffffffffffffffffffffffffffff167f9836af9e2b5272cced48d1370342a33fd92052e2ccf9452759d4a265f8e0710b60405160405180910390a2565b600060018281548110610d6c57610d6b611ca6565b5b9060005260206000200160009054906101000a900473ffffffffffffffffffffffffffffffffffffffff169050919050565b610da6611356565b604051806060016040528060318152602001603181526020016064815250905090565b6000600361ffff16905090565b600060606000806001811115610def57610dee6117cb565b5b600560009054906101000a900460ff166001811115610e1157610e106117cb565b5b1490506000601e60035442610e269190611eea565b1190506000806002805490501180610e42575060008080549050115b80610e5257506000600180549050115b905060008047119050838015610e655750825b8015610e6e5750815b8015610e775750805b955050505050915091565b6000601e905090565b6000600180549050905090565b60007f0000000000000000000000000000000000000000000000000000000000000000905090565b600060028281548110610ed657610ed5611ca6565b5b9060005260206000200160009054906101000a900473ffffffffffffffffffffffffffffffffffffffff169050919050565b60007f0000000000000000000000000000000000000000000000000000000000000000905090565b6000600560009054906101000a900460ff16905090565b60606004805480602002602001604051908101604052809291908181526020018280548015610fcb57602002820191906000526020600020905b8160009054906101000a900473ffffffffffffffffffffffffffffffffffffffff1673ffffffffffffffffffffffffffffffffffffffff1681526020019060010190808311610f81575b5050505050905090565b6000606482600081518110610fed57610fec611ca6565b5b6020026020010151610fff9190611f4d565b9050600061100c82610af6565b905060006002811115611022576110216117cb565b5b816002811115611035576110346117cb565b5b1415611053576000600490805461104d929190611378565b506110ad565b60016002811115611067576110666117cb565b5b81600281111561107a576110796117cb565b5b14156110985760026004908054611092929190611378565b506110ac565b600160049080546110aa929190611378565b505b5b42600381905550600067ffffffffffffffff8111156110cf576110ce6114fb565b5b6040519080825280602002602001820160405280156110fd5781602001602082028036833780820191505090505b50600090805190602001906111139291906113ca565b50600067ffffffffffffffff81111561112f5761112e6114fb565b5b60405190808252806020026020018201604052801561115d5781602001602082028036833780820191505090505b50600290805190602001906111739291906113ca565b50600067ffffffffffffffff81111561118f5761118e6114fb565b5b6040519080825280602002602001820160405280156111bd5781602001602082028036833780820191505090505b50600190805190602001906111d39291906113ca565b5060005b6004805490508110156112e1576000600482815481106111fa576111f9611ca6565b5b9060005260206000200160009054906101000a900473ffffffffffffffffffffffffffffffffffffffff1673ffffffffffffffffffffffffffffffffffffffff1667016345785d8a000060405161125090611faf565b60006040518083038185875af1925050503d806000811461128d576040519150601f19603f3d011682016040523d82523d6000602084013e611292565b606091505b50509050806112cd576040517f0d34c7ce00000000000000000000000000000000000000000000000000000000815260040160405180910390fd5b5080806112d990611ea1565b9150506111d7565b5060046040516112f191906120e2565b60405180910390207f80624e43dc2be5bdb3a00067a406d64c2632d004437308e62c32f3b97790dd8260405160405180910390a26000600560006101000a81548160ff0219169083600181111561134b5761134a6117cb565b5b021790555050505050565b6040518060600160405280600390602082028036833780820191505090505090565b8280548282559060005260206000209081019282156113b95760005260206000209182015b828111156113b857825482559160010191906001019061139d565b5b5090506113c69190611454565b5090565b828054828255906000526020600020908101928215611443579160200282015b828111156114425782518260006101000a81548173ffffffffffffffffffffffffffffffffffffffff021916908373ffffffffffffffffffffffffffffffffffffffff160217905550916020019190600101906113ea565b5b5090506114509190611454565b5090565b5b8082111561146d576000816000905550600101611455565b5090565b6000819050919050565b61148481611471565b82525050565b600060208201905061149f600083018461147b565b92915050565b6000604051905090565b600080fd5b600080fd5b6114c281611471565b81146114cd57600080fd5b50565b6000813590506114df816114b9565b92915050565b600080fd5b6000601f19601f8301169050919050565b7f4e487b7100000000000000000000000000000000000000000000000000000000600052604160045260246000fd5b611533826114ea565b810181811067ffffffffffffffff82111715611552576115516114fb565b5b80604052505050565b60006115656114a5565b9050611571828261152a565b919050565b600067ffffffffffffffff821115611591576115906114fb565b5b602082029050602081019050919050565b600080fd5b60006115ba6115b584611576565b61155b565b905080838252602082019050602084028301858111156115dd576115dc6115a2565b5b835b8181101561160657806115f288826114d0565b8452602084019350506020810190506115df565b5050509392505050565b600082601f830112611625576116246114e5565b5b81356116358482602086016115a7565b91505092915050565b60008060408385031215611655576116546114af565b5b6000611663858286016114d0565b925050602083013567ffffffffffffffff811115611684576116836114b4565b5b61169085828601611610565b9150509250929050565b6000602082840312156116b0576116af6114af565b5b60006116be848285016114d0565b91505092915050565b600073ffffffffffffffffffffffffffffffffffffffff82169050919050565b60006116f2826116c7565b9050919050565b611702816116e7565b82525050565b600060208201905061171d60008301846116f9565b92915050565b600080fd5b60008083601f84011261173e5761173d6114e5565b5b8235905067ffffffffffffffff81111561175b5761175a611723565b5b602083019150836001820283011115611777576117766115a2565b5b9250929050565b60008060208385031215611795576117946114af565b5b600083013567ffffffffffffffff8111156117b3576117b26114b4565b5b6117bf85828601611728565b92509250509250929050565b7f4e487b7100000000000000000000000000000000000000000000000000000000600052602160045260246000fd5b6003811061180b5761180a6117cb565b5b50565b600081905061181c826117fa565b919050565b600061182c8261180e565b9050919050565b61183c81611821565b82525050565b60006020820190506118576000830184611833565b92915050565b600060039050919050565b600081905092915050565b6000819050919050565b61188681611471565b82525050565b6000611898838361187d565b60208301905092915050565b6000602082019050919050565b6118ba8161185d565b6118c48184611868565b92506118cf82611873565b8060005b838110156119005781516118e7878261188c565b96506118f2836118a4565b9250506001810190506118d3565b505050505050565b600060608201905061191d60008301846118b1565b92915050565b600080fd5b600067ffffffffffffffff821115611943576119426114fb565b5b61194c826114ea565b9050602081019050919050565b82818337600083830152505050565b600061197b61197684611928565b61155b565b90508281526020810184848401111561199757611996611923565b5b6119a2848285611959565b509392505050565b600082601f8301126119bf576119be6114e5565b5b81356119cf848260208601611968565b91505092915050565b6000602082840312156119ee576119ed6114af565b5b600082013567ffffffffffffffff811115611a0c57611a0b6114b4565b5b611a18848285016119aa565b91505092915050565b60008115159050919050565b611a3681611a21565b82525050565b600081519050919050565b600082825260208201905092915050565b60005b83811015611a76578082015181840152602081019050611a5b565b83811115611a85576000848401525b50505050565b6000611a9682611a3c565b611aa08185611a47565b9350611ab0818560208601611a58565b611ab9816114ea565b840191505092915050565b6000604082019050611ad96000830185611a2d565b8181036020830152611aeb8184611a8b565b90509392505050565b6000819050919050565b611b0781611af4565b82525050565b6000602082019050611b226000830184611afe565b92915050565b60028110611b3957611b386117cb565b5b50565b6000819050611b4a82611b28565b919050565b6000611b5a82611b3c565b9050919050565b611b6a81611b4f565b82525050565b6000602082019050611b856000830184611b61565b92915050565b600081519050919050565b600082825260208201905092915050565b6000819050602082019050919050565b6000611bc2826116c7565b9050919050565b611bd281611bb7565b82525050565b6000611be48383611bc9565b60208301905092915050565b6000602082019050919050565b6000611c0882611b8b565b611c128185611b96565b9350611c1d83611ba7565b8060005b83811015611c4e578151611c358882611bd8565b9750611c4083611bf0565b925050600181019050611c21565b5085935050505092915050565b60006020820190508181036000830152611c758184611bfd565b905092915050565b6000604082019050611c9260008301856116f9565b611c9f60208301846116f9565b9392505050565b7f4e487b7100000000000000000000000000000000000000000000000000000000600052603260045260246000fd5b600060a082019050611cea600083018861147b565b611cf7602083018761147b565b611d04604083018661147b565b611d11606083018561147b565b611d1e608083018461147b565b9695505050505050565b600067ffffffffffffffff82169050919050565b611d4581611d28565b82525050565b600061ffff82169050919050565b611d6281611d4b565b82525050565b600063ffffffff82169050919050565b611d8181611d68565b82525050565b600060a082019050611d9c6000830188611afe565b611da96020830187611d3c565b611db66040830186611d59565b611dc36060830185611d78565b611dd06080830184611d78565b9695505050505050565b600081519050611de9816114b9565b92915050565b600060208284031215611e0557611e046114af565b5b6000611e1384828501611dda565b91505092915050565b7f4e487b7100000000000000000000000000000000000000000000000000000000600052601160045260246000fd5b6000611e5682611471565b9150611e6183611471565b9250827fffffffffffffffffffffffffffffffffffffffffffffffffffffffffffffffff03821115611e9657611e95611e1c565b5b828201905092915050565b6000611eac82611471565b91507fffffffffffffffffffffffffffffffffffffffffffffffffffffffffffffffff821415611edf57611ede611e1c565b5b600182019050919050565b6000611ef582611471565b9150611f0083611471565b925082821015611f1357611f12611e1c565b5b828203905092915050565b7f4e487b7100000000000000000000000000000000000000000000000000000000600052601260045260246000fd5b6000611f5882611471565b9150611f6383611471565b925082611f7357611f72611f1e565b5b828206905092915050565b600081905092915050565b50565b6000611f99600083611f7e565b9150611fa482611f89565b600082019050919050565b6000611fba82611f8c565b9150819050919050565b600081549050919050565b600081905092915050565b60008190508160005260206000209050919050565b611ff881611bb7565b82525050565b600061200a8383611fef565b60208301905092915050565b60008160001c9050919050565b600073ffffffffffffffffffffffffffffffffffffffff82169050919050565b600061205661205183612016565b612023565b9050919050565b60006120698254612043565b9050919050565b6000600182019050919050565b600061208882611fc4565b6120928185611fcf565b935061209d83611fda565b8060005b838110156120d5576120b28261205d565b6120bc8882611ffe565b97506120c783612070565b9250506001810190506120a1565b5085935050505092915050565b60006120ee828461207d565b91508190509291505056fea26469706673582212208c3ef71a9621a9a5fac3b804760196d3b2435b11ea6297707c386f5af2e0136e64736f6c63430008090033",
  "linkReferences": {},
  "deployedLinkReferences": {}
}