{
  "_format": "hh-sol-artifact-1",
  "contractName": "Roullete",
  "sourceName": "contracts/Roullete.sol",
  "abi": [
    {
      "inputs": [
        {
          "internalType": "uint256",
          "name": "entranceFee",
          "type": "uint256"
        },
        {
          "internalType": "address",
          "name": "VRFCoordinatorV2",
          "type": "address"
        },
        {
          "internalType": "bytes32",
          "name": "gasLane",
          "type": "bytes32"
        },
        {
          "internalType": "uint64",
          "name": "subscriptionId",
          "type": "uint64"
        },
        {
          "internalType": "uint32",
          "name": "callbackGasLimit",
          "type": "uint32"
        }
      ],
      "stateMutability": "nonpayable",
      "type": "constructor"
    },
    {
      "inputs": [
        {
          "internalType": "address",
          "name": "have",
          "type": "address"
        },
        {
          "internalType": "address",
          "name": "want",
          "type": "address"
        }
      ],
      "name": "OnlyCoordinatorCanFulfill",
      "type": "error"
    },
    {
      "inputs": [],
      "name": "RangeOutOfBounds",
      "type": "error"
    },
    {
      "inputs": [],
      "name": "Roullete__NotEnoughEth",
      "type": "error"
    },
    {
      "inputs": [],
      "name": "Roullete_closed",
      "type": "error"
    },
    {
      "inputs": [],
      "name": "Roullete_transferFailed",
      "type": "error"
    },
    {
      "inputs": [
        {
          "internalType": "uint256",
          "name": "currentBalance",
          "type": "uint256"
        },
        {
          "internalType": "uint256",
          "name": "Bplayers",
          "type": "uint256"
        },
        {
          "internalType": "uint256",
          "name": "Rplayers",
          "type": "uint256"
        },
        {
          "internalType": "uint256",
          "name": "Gplayers",
          "type": "uint256"
        },
        {
          "internalType": "uint256",
          "name": "roulleteState",
          "type": "uint256"
        }
      ],
      "name": "Roullete_upKeepNotNeeded",
      "type": "error"
    },
    {
      "anonymous": false,
      "inputs": [
        {
          "indexed": true,
          "internalType": "address",
          "name": "player",
          "type": "address"
        }
      ],
      "name": "RoulleteEnter",
      "type": "event"
    },
    {
      "anonymous": false,
      "inputs": [
        {
          "indexed": true,
          "internalType": "uint256",
          "name": "requestId",
          "type": "uint256"
        }
      ],
      "name": "requestedRoulleteResult",
      "type": "event"
    },
    {
      "anonymous": false,
      "inputs": [
        {
          "indexed": true,
          "internalType": "address payable[]",
          "name": "winner",
          "type": "address[]"
        }
      ],
      "name": "winnerpicked",
      "type": "event"
    },
    {
      "inputs": [],
      "name": "amountOfWinners",
      "outputs": [
        {
          "internalType": "uint256",
          "name": "",
          "type": "uint256"
        }
      ],
      "stateMutability": "view",
      "type": "function"
    },
    {
      "inputs": [
        {
          "internalType": "bytes",
          "name": "",
          "type": "bytes"
        }
      ],
      "name": "checkUpkeep",
      "outputs": [
        {
          "internalType": "bool",
          "name": "upkeepNeeded",
          "type": "bool"
        },
        {
          "internalType": "bytes",
          "name": "",
          "type": "bytes"
        }
      ],
      "stateMutability": "view",
      "type": "function"
    },
    {
      "inputs": [],
      "name": "enterBlack",
      "outputs": [],
      "stateMutability": "payable",
      "type": "function"
    },
    {
      "inputs": [],
      "name": "enterGreen",
      "outputs": [],
      "stateMutability": "payable",
      "type": "function"
    },
    {
      "inputs": [],
      "name": "enterRed",
      "outputs": [],
      "stateMutability": "payable",
      "type": "function"
    },
    {
      "inputs": [
        {
          "internalType": "uint256",
          "name": "index",
          "type": "uint256"
        }
      ],
      "name": "getBlackPlayer",
      "outputs": [
        {
          "internalType": "address",
          "name": "",
          "type": "address"
        }
      ],
      "stateMutability": "view",
      "type": "function"
    },
    {
      "inputs": [],
      "name": "getChanceArray",
      "outputs": [
        {
          "internalType": "uint256[3]",
          "name": "",
          "type": "uint256[3]"
        }
      ],
      "stateMutability": "pure",
      "type": "function"
    },
    {
      "inputs": [],
      "name": "getEntraceFee",
      "outputs": [
        {
          "internalType": "uint256",
          "name": "",
          "type": "uint256"
        }
      ],
      "stateMutability": "view",
      "type": "function"
    },
    {
      "inputs": [
        {
          "internalType": "uint256",
          "name": "index",
          "type": "uint256"
        }
      ],
      "name": "getGreenPlayer",
      "outputs": [
        {
          "internalType": "address",
          "name": "",
          "type": "address"
        }
      ],
      "stateMutability": "view",
      "type": "function"
    },
    {
      "inputs": [],
      "name": "getInterval",
      "outputs": [
        {
          "internalType": "uint256",
          "name": "",
          "type": "uint256"
        }
      ],
      "stateMutability": "pure",
      "type": "function"
    },
    {
      "inputs": [],
      "name": "getLatestColor",
      "outputs": [
        {
          "internalType": "string",
          "name": "",
          "type": "string"
        }
      ],
      "stateMutability": "view",
      "type": "function"
    },
    {
      "inputs": [],
      "name": "getLatestTimeStamp",
      "outputs": [
        {
          "internalType": "uint256",
          "name": "",
          "type": "uint256"
        }
      ],
      "stateMutability": "view",
      "type": "function"
    },
    {
      "inputs": [],
      "name": "getNumWords",
      "outputs": [
        {
          "internalType": "uint256",
          "name": "",
          "type": "uint256"
        }
      ],
      "stateMutability": "pure",
      "type": "function"
    },
    {
      "inputs": [],
      "name": "getNumberOfPlayersOfBlack",
      "outputs": [
        {
          "internalType": "uint256",
          "name": "",
          "type": "uint256"
        }
      ],
      "stateMutability": "view",
      "type": "function"
    },
    {
      "inputs": [],
      "name": "getNumberOfPlayersOfGreen",
      "outputs": [
        {
          "internalType": "uint256",
          "name": "",
          "type": "uint256"
        }
      ],
      "stateMutability": "view",
      "type": "function"
    },
    {
      "inputs": [],
      "name": "getNumberOfPlayersOfRed",
      "outputs": [
        {
          "internalType": "uint256",
          "name": "",
          "type": "uint256"
        }
      ],
      "stateMutability": "view",
      "type": "function"
    },
    {
      "inputs": [
        {
          "internalType": "uint256",
          "name": "index",
          "type": "uint256"
        }
      ],
      "name": "getRecentWinners",
      "outputs": [
        {
          "internalType": "address",
          "name": "",
          "type": "address"
        }
      ],
      "stateMutability": "view",
      "type": "function"
    },
    {
      "inputs": [
        {
          "internalType": "uint256",
          "name": "index",
          "type": "uint256"
        }
      ],
      "name": "getRedPlayer",
      "outputs": [
        {
          "internalType": "address",
          "name": "",
          "type": "address"
        }
      ],
      "stateMutability": "view",
      "type": "function"
    },
    {
      "inputs": [],
      "name": "getRequestConfirmations",
      "outputs": [
        {
          "internalType": "uint256",
          "name": "",
          "type": "uint256"
        }
      ],
      "stateMutability": "pure",
      "type": "function"
    },
    {
      "inputs": [
        {
          "internalType": "uint256",
          "name": "chance",
          "type": "uint256"
        }
      ],
      "name": "getWinningBet",
      "outputs": [
        {
          "internalType": "enum Roullete.Bets",
          "name": "",
          "type": "uint8"
        }
      ],
      "stateMutability": "pure",
      "type": "function"
    },
    {
      "inputs": [],
      "name": "getgasLane",
      "outputs": [
        {
          "internalType": "bytes32",
          "name": "",
          "type": "bytes32"
        }
      ],
      "stateMutability": "view",
      "type": "function"
    },
    {
      "inputs": [],
      "name": "getroulletestate",
      "outputs": [
        {
          "internalType": "enum Roullete.RoulleteState",
          "name": "",
          "type": "uint8"
        }
      ],
      "stateMutability": "view",
      "type": "function"
    },
    {
      "inputs": [
        {
          "internalType": "bytes",
          "name": "",
          "type": "bytes"
        }
      ],
      "name": "performUpkeep",
      "outputs": [],
      "stateMutability": "nonpayable",
      "type": "function"
    },
    {
      "inputs": [
        {
          "internalType": "uint256",
          "name": "requestId",
          "type": "uint256"
        },
        {
          "internalType": "uint256[]",
          "name": "randomWords",
          "type": "uint256[]"
        }
      ],
      "name": "rawFulfillRandomWords",
      "outputs": [],
      "stateMutability": "nonpayable",
      "type": "function"
    },
    {
      "stateMutability": "payable",
      "type": "receive"
    }
  ],
  "bytecode": "0x6101406040526000805560405180602001604052806000815250600590805190602001906200003092919062000164565b503480156200003e57600080fd5b50604051620029fc380380620029fc83398181016040528101906200006491906200037a565b838073ffffffffffffffffffffffffffffffffffffffff1660808173ffffffffffffffffffffffffffffffffffffffff1660601b81525050508460a081815250508373ffffffffffffffffffffffffffffffffffffffff1660c08173ffffffffffffffffffffffffffffffffffffffff1660601b815250508260e081815250508167ffffffffffffffff166101008167ffffffffffffffff1660c01b815250508063ffffffff166101208163ffffffff1660e01b815250506000600760006101000a81548160ff0219169083600181111562000145576200014462000402565b5b0217905550426004819055506003600081905550505050505062000496565b828054620001729062000460565b90600052602060002090601f016020900481019282620001965760008555620001e2565b82601f10620001b157805160ff1916838001178555620001e2565b82800160010185558215620001e2579182015b82811115620001e1578251825591602001919060010190620001c4565b5b509050620001f19190620001f5565b5090565b5b8082111562000210576000816000905550600101620001f6565b5090565b600080fd5b6000819050919050565b6200022e8162000219565b81146200023a57600080fd5b50565b6000815190506200024e8162000223565b92915050565b600073ffffffffffffffffffffffffffffffffffffffff82169050919050565b6000620002818262000254565b9050919050565b620002938162000274565b81146200029f57600080fd5b50565b600081519050620002b38162000288565b92915050565b6000819050919050565b620002ce81620002b9565b8114620002da57600080fd5b50565b600081519050620002ee81620002c3565b92915050565b600067ffffffffffffffff82169050919050565b6200031381620002f4565b81146200031f57600080fd5b50565b600081519050620003338162000308565b92915050565b600063ffffffff82169050919050565b620003548162000339565b81146200036057600080fd5b50565b600081519050620003748162000349565b92915050565b600080600080600060a0868803121562000399576200039862000214565b5b6000620003a9888289016200023d565b9550506020620003bc88828901620002a2565b9450506040620003cf88828901620002dd565b9350506060620003e28882890162000322565b9250506080620003f58882890162000363565b9150509295509295909350565b7f4e487b7100000000000000000000000000000000000000000000000000000000600052602160045260246000fd5b7f4e487b7100000000000000000000000000000000000000000000000000000000600052602260045260246000fd5b600060028204905060018216806200047957607f821691505b6020821081141562000490576200048f62000431565b5b50919050565b60805160601c60a05160c05160601c60e0516101005160c01c6101205160e01c6124e7620005156000396000610ab901526000610a96015260008181610a750152610fc701526000610a3901526000818161056b015281816107ef01528181610c7401526110370152600081816106e7015261073b01526124e76000f3fe60806040526004361061014f5760003560e01c80635dacf5f4116100b6578063c235615a1161006f578063c235615a14610443578063c5e1ae0e1461046e578063ca5953b214610499578063ce147cf3146104d6578063daebbd5514610501578063efc5f5371461052c57610156565b80635dacf5f41461032e5780635f1b0fd8146103595780636e04ff0d1461038457806371aff9a2146103c257806390e20b11146103ed57806391ad27b41461041857610156565b8063320229eb11610108578063320229eb1461022b5780634585e33b1461025657806350f1126b1461027f57806353a2c19a146102bc5780635541e758146102e75780635a319963146102f157610156565b806306170dea1461015b57806306b188b6146101655780631fe543e314610190578063247abaca146101b95780632bacb08b146101f65780632fd314841461020057610156565b3661015657005b600080fd5b610163610569565b005b34801561017157600080fd5b5061017a6106d8565b604051610187919061184a565b60405180910390f35b34801561019c57600080fd5b506101b760048036038101906101b291906119fe565b6106e5565b005b3480156101c557600080fd5b506101e060048036038101906101db9190611a5a565b6107a5565b6040516101ed9190611ac8565b60405180910390f35b6101fe6107ed565b005b34801561020c57600080fd5b5061021561095c565b604051610222919061184a565b60405180910390f35b34801561023757600080fd5b50610240610969565b60405161024d919061184a565b60405180910390f35b34801561026257600080fd5b5061027d60048036038101906102789190611b3e565b610973565b005b34801561028b57600080fd5b506102a660048036038101906102a19190611a5a565b610b81565b6040516102b39190611c02565b60405180910390f35b3480156102c857600080fd5b506102d1610c63565b6040516102de919061184a565b60405180910390f35b6102ef610c72565b005b3480156102fd57600080fd5b5061031860048036038101906103139190611a5a565b610de1565b6040516103259190611ac8565b60405180910390f35b34801561033a57600080fd5b50610343610e29565b6040516103509190611cc8565b60405180910390f35b34801561036557600080fd5b5061036e610e54565b60405161037b919061184a565b60405180910390f35b34801561039057600080fd5b506103ab60048036038101906103a69190611d98565b610e61565b6040516103b9929190611e84565b60405180910390f35b3480156103ce57600080fd5b506103d7610f0e565b6040516103e49190611f09565b60405180910390f35b3480156103f957600080fd5b50610402610fa0565b60405161040f919061184a565b60405180910390f35b34801561042457600080fd5b5061042d610fad565b60405161043a919061184a565b60405180910390f35b34801561044f57600080fd5b50610458610fb6565b604051610465919061184a565b60405180910390f35b34801561047a57600080fd5b50610483610fc3565b6040516104909190611f44565b60405180910390f35b3480156104a557600080fd5b506104c060048036038101906104bb9190611a5a565b610feb565b6040516104cd9190611ac8565b60405180910390f35b3480156104e257600080fd5b506104eb611033565b6040516104f8919061184a565b60405180910390f35b34801561050d57600080fd5b5061051661105b565b6040516105239190611fa7565b60405180910390f35b34801561053857600080fd5b50610553600480360381019061054e9190611a5a565b611072565b6040516105609190611ac8565b60405180910390f35b7f00000000000000000000000000000000000000000000000000000000000000003410156105c3576040517fecbc979a00000000000000000000000000000000000000000000000000000000815260040160405180910390fd5b600060018111156105d7576105d6611b8b565b5b600760009054906101000a900460ff1660018111156105f9576105f8611b8b565b5b14610630576040517fb0c6c11500000000000000000000000000000000000000000000000000000000815260040160405180910390fd5b6001339080600181540180825580915050600190039060005260206000200160009091909190916101000a81548173ffffffffffffffffffffffffffffffffffffffff021916908373ffffffffffffffffffffffffffffffffffffffff1602179055503373ffffffffffffffffffffffffffffffffffffffff167f9836af9e2b5272cced48d1370342a33fd92052e2ccf9452759d4a265f8e0710b60405160405180910390a2565b6000600380549050905090565b7f000000000000000000000000000000000000000000000000000000000000000073ffffffffffffffffffffffffffffffffffffffff163373ffffffffffffffffffffffffffffffffffffffff161461079757337f00000000000000000000000000000000000000000000000000000000000000006040517f1cf993f400000000000000000000000000000000000000000000000000000000815260040161078e929190611fc2565b60405180910390fd5b6107a182826110ba565b5050565b6000600282815481106107bb576107ba611feb565b5b9060005260206000200160009054906101000a900473ffffffffffffffffffffffffffffffffffffffff169050919050565b7f0000000000000000000000000000000000000000000000000000000000000000341015610847576040517fecbc979a00000000000000000000000000000000000000000000000000000000815260040160405180910390fd5b6000600181111561085b5761085a611b8b565b5b600760009054906101000a900460ff16600181111561087d5761087c611b8b565b5b146108b4576040517fb0c6c11500000000000000000000000000000000000000000000000000000000815260040160405180910390fd5b6003339080600181540180825580915050600190039060005260206000200160009091909190916101000a81548173ffffffffffffffffffffffffffffffffffffffff021916908373ffffffffffffffffffffffffffffffffffffffff1602179055503373ffffffffffffffffffffffffffffffffffffffff167f9836af9e2b5272cced48d1370342a33fd92052e2ccf9452759d4a265f8e0710b60405160405180910390a2565b6000600180549050905090565b6000600454905090565b600061098d60405180602001604052806000815250610e61565b50905080610a0a5747600380549050600180549050600280549050600760009054906101000a900460ff1660018111156109ca576109c9611b8b565b5b6040517f90262e31000000000000000000000000000000000000000000000000000000008152600401610a0195949392919061201a565b60405180910390fd5b6001600760006101000a81548160ff02191690836001811115610a3057610a2f611b8b565b5b021790555060007f000000000000000000000000000000000000000000000000000000000000000073ffffffffffffffffffffffffffffffffffffffff16635d3b1d307f00000000000000000000000000000000000000000000000000000000000000007f000000000000000000000000000000000000000000000000000000000000000060037f000000000000000000000000000000000000000000000000000000000000000060016040518663ffffffff1660e01b8152600401610afa9594939291906120cc565b602060405180830381600087803b158015610b1457600080fd5b505af1158015610b28573d6000803e3d6000fd5b505050506040513d601f19601f82011682018060405250810190610b4c9190612134565b9050807f4ff16b3fc94bbf92ec93fec52025caadbcf9e22b038e9675c6dbdec0fe60c09060405160405180910390a250505050565b600080600090506000610b92610e29565b905060005b6003811015610c2b57828510158015610bd15750818160038110610bbe57610bbd611feb565b5b602002015183610bce9190612190565b85105b15610bf357806002811115610be957610be8611b8b565b5b9350505050610c5e565b818160038110610c0657610c05611feb565b5b602002015183610c169190612190565b92508080610c23906121e6565b915050610b97565b506040517f0655dc2500000000000000000000000000000000000000000000000000000000815260040160405180910390fd5b919050565b6000600163ffffffff16905090565b7f0000000000000000000000000000000000000000000000000000000000000000341015610ccc576040517fecbc979a00000000000000000000000000000000000000000000000000000000815260040160405180910390fd5b60006001811115610ce057610cdf611b8b565b5b600760009054906101000a900460ff166001811115610d0257610d01611b8b565b5b14610d39576040517fb0c6c11500000000000000000000000000000000000000000000000000000000815260040160405180910390fd5b6002339080600181540180825580915050600190039060005260206000200160009091909190916101000a81548173ffffffffffffffffffffffffffffffffffffffff021916908373ffffffffffffffffffffffffffffffffffffffff1602179055503373ffffffffffffffffffffffffffffffffffffffff167f9836af9e2b5272cced48d1370342a33fd92052e2ccf9452759d4a265f8e0710b60405160405180910390a2565b600060018281548110610df757610df6611feb565b5b9060005260206000200160009054906101000a900473ffffffffffffffffffffffffffffffffffffffff169050919050565b610e31611690565b604051806060016040528060318152602001603181526020016064815250905090565b6000600361ffff16905090565b600060606000806001811115610e7a57610e79611b8b565b5b600760009054906101000a900460ff166001811115610e9c57610e9b611b8b565b5b1490506000601e60045442610eb1919061222f565b1190506000806003805490501180610ece57506000600180549050115b80610ede57506000600280549050115b905060008047119050838015610ef15750825b8015610efa5750815b8015610f035750805b955050505050915091565b606060058054610f1d90612292565b80601f0160208091040260200160405190810160405280929190818152602001828054610f4990612292565b8015610f965780601f10610f6b57610100808354040283529160200191610f96565b820191906000526020600020905b815481529060010190602001808311610f7957829003601f168201915b5050505050905090565b6000600680549050905090565b6000601e905090565b6000600280549050905090565b60007f0000000000000000000000000000000000000000000000000000000000000000905090565b60006003828154811061100157611000611feb565b5b9060005260206000200160009054906101000a900473ffffffffffffffffffffffffffffffffffffffff169050919050565b60007f0000000000000000000000000000000000000000000000000000000000000000905090565b6000600760009054906101000a900460ff16905090565b60006006828154811061108857611087611feb565b5b9060005260206000200160009054906101000a900473ffffffffffffffffffffffffffffffffffffffff169050919050565b60006064826000815181106110d2576110d1611feb565b5b60200260200101516110e491906122f3565b905060006110f182610b81565b90506000600281111561110757611106611b8b565b5b81600281111561111a57611119611b8b565b5b141561114057600160069080546111329291906116b2565b5060026000819055506111a9565b6001600281111561115457611153611b8b565b5b81600281111561116757611166611b8b565b5b141561118d576003600690805461117f9291906116b2565b5060016000819055506111a8565b6002600690805461119f9291906116b2565b50600080819055505b5b42600481905550600067ffffffffffffffff8111156111cb576111ca6118bb565b5b6040519080825280602002602001820160405280156111f95781602001602082028036833780820191505090505b506001908051906020019061120f929190611704565b50600067ffffffffffffffff81111561122b5761122a6118bb565b5b6040519080825280602002602001820160405280156112595781602001602082028036833780820191505090505b506003908051906020019061126f929190611704565b50600067ffffffffffffffff81111561128b5761128a6118bb565b5b6040519080825280602002602001820160405280156112b95781602001602082028036833780820191505090505b50600290805190602001906112cf929190611704565b5060008054141561132b576040518060400160405280600581526020017f475245454e0000000000000000000000000000000000000000000000000000008152506005908051906020019061132592919061178e565b506113d5565b60016000541415611387576040518060400160405280600581526020017f424c41434b0000000000000000000000000000000000000000000000000000008152506005908051906020019061138192919061178e565b506113d4565b6040518060400160405280600381526020017f5245440000000000000000000000000000000000000000000000000000000000815250600590805190602001906113d292919061178e565b505b5b600060068054905014156113e857611614565b6000805414156115055760005b6006805490508110156114ff5760006006828154811061141857611417611feb565b5b9060005260206000200160009054906101000a900473ffffffffffffffffffffffffffffffffffffffff1673ffffffffffffffffffffffffffffffffffffffff166701f161421c8e000060405161146e90612355565b60006040518083038185875af1925050503d80600081146114ab576040519150601f19603f3d011682016040523d82523d6000602084013e6114b0565b606091505b50509050806114eb576040517f0d34c7ce00000000000000000000000000000000000000000000000000000000815260040160405180910390fd5b5080806114f7906121e6565b9150506113f5565b50611613565b60005b6006805490508110156116115760006006828154811061152b5761152a611feb565b5b9060005260206000200160009054906101000a900473ffffffffffffffffffffffffffffffffffffffff1673ffffffffffffffffffffffffffffffffffffffff1666470de4df82000060405161158090612355565b60006040518083038185875af1925050503d80600081146115bd576040519150601f19603f3d011682016040523d82523d6000602084013e6115c2565b606091505b50509050806115fd576040517f0d34c7ce00000000000000000000000000000000000000000000000000000000815260040160405180910390fd5b508080611609906121e6565b915050611508565b505b5b6006604051611623919061249a565b60405180910390207f80624e43dc2be5bdb3a00067a406d64c2632d004437308e62c32f3b97790dd8260405160405180910390a26000600760006101000a81548160ff0219169083600181111561167d5761167c611b8b565b5b0217905550600360008190555050505050565b6040518060600160405280600390602082028036833780820191505090505090565b8280548282559060005260206000209081019282156116f35760005260206000209182015b828111156116f25782548255916001019190600101906116d7565b5b5090506117009190611814565b5090565b82805482825590600052602060002090810192821561177d579160200282015b8281111561177c5782518260006101000a81548173ffffffffffffffffffffffffffffffffffffffff021916908373ffffffffffffffffffffffffffffffffffffffff16021790555091602001919060010190611724565b5b50905061178a9190611814565b5090565b82805461179a90612292565b90600052602060002090601f0160209004810192826117bc5760008555611803565b82601f106117d557805160ff1916838001178555611803565b82800160010185558215611803579182015b828111156118025782518255916020019190600101906117e7565b5b5090506118109190611814565b5090565b5b8082111561182d576000816000905550600101611815565b5090565b6000819050919050565b61184481611831565b82525050565b600060208201905061185f600083018461183b565b92915050565b6000604051905090565b600080fd5b600080fd5b61188281611831565b811461188d57600080fd5b50565b60008135905061189f81611879565b92915050565b600080fd5b6000601f19601f8301169050919050565b7f4e487b7100000000000000000000000000000000000000000000000000000000600052604160045260246000fd5b6118f3826118aa565b810181811067ffffffffffffffff82111715611912576119116118bb565b5b80604052505050565b6000611925611865565b905061193182826118ea565b919050565b600067ffffffffffffffff821115611951576119506118bb565b5b602082029050602081019050919050565b600080fd5b600061197a61197584611936565b61191b565b9050808382526020820190506020840283018581111561199d5761199c611962565b5b835b818110156119c657806119b28882611890565b84526020840193505060208101905061199f565b5050509392505050565b600082601f8301126119e5576119e46118a5565b5b81356119f5848260208601611967565b91505092915050565b60008060408385031215611a1557611a1461186f565b5b6000611a2385828601611890565b925050602083013567ffffffffffffffff811115611a4457611a43611874565b5b611a50858286016119d0565b9150509250929050565b600060208284031215611a7057611a6f61186f565b5b6000611a7e84828501611890565b91505092915050565b600073ffffffffffffffffffffffffffffffffffffffff82169050919050565b6000611ab282611a87565b9050919050565b611ac281611aa7565b82525050565b6000602082019050611add6000830184611ab9565b92915050565b600080fd5b60008083601f840112611afe57611afd6118a5565b5b8235905067ffffffffffffffff811115611b1b57611b1a611ae3565b5b602083019150836001820283011115611b3757611b36611962565b5b9250929050565b60008060208385031215611b5557611b5461186f565b5b600083013567ffffffffffffffff811115611b7357611b72611874565b5b611b7f85828601611ae8565b92509250509250929050565b7f4e487b7100000000000000000000000000000000000000000000000000000000600052602160045260246000fd5b60038110611bcb57611bca611b8b565b5b50565b6000819050611bdc82611bba565b919050565b6000611bec82611bce565b9050919050565b611bfc81611be1565b82525050565b6000602082019050611c176000830184611bf3565b92915050565b600060039050919050565b600081905092915050565b6000819050919050565b611c4681611831565b82525050565b6000611c588383611c3d565b60208301905092915050565b6000602082019050919050565b611c7a81611c1d565b611c848184611c28565b9250611c8f82611c33565b8060005b83811015611cc0578151611ca78782611c4c565b9650611cb283611c64565b925050600181019050611c93565b505050505050565b6000606082019050611cdd6000830184611c71565b92915050565b600080fd5b600067ffffffffffffffff821115611d0357611d026118bb565b5b611d0c826118aa565b9050602081019050919050565b82818337600083830152505050565b6000611d3b611d3684611ce8565b61191b565b905082815260208101848484011115611d5757611d56611ce3565b5b611d62848285611d19565b509392505050565b600082601f830112611d7f57611d7e6118a5565b5b8135611d8f848260208601611d28565b91505092915050565b600060208284031215611dae57611dad61186f565b5b600082013567ffffffffffffffff811115611dcc57611dcb611874565b5b611dd884828501611d6a565b91505092915050565b60008115159050919050565b611df681611de1565b82525050565b600081519050919050565b600082825260208201905092915050565b60005b83811015611e36578082015181840152602081019050611e1b565b83811115611e45576000848401525b50505050565b6000611e5682611dfc565b611e608185611e07565b9350611e70818560208601611e18565b611e79816118aa565b840191505092915050565b6000604082019050611e996000830185611ded565b8181036020830152611eab8184611e4b565b90509392505050565b600081519050919050565b600082825260208201905092915050565b6000611edb82611eb4565b611ee58185611ebf565b9350611ef5818560208601611e18565b611efe816118aa565b840191505092915050565b60006020820190508181036000830152611f238184611ed0565b905092915050565b6000819050919050565b611f3e81611f2b565b82525050565b6000602082019050611f596000830184611f35565b92915050565b60028110611f7057611f6f611b8b565b5b50565b6000819050611f8182611f5f565b919050565b6000611f9182611f73565b9050919050565b611fa181611f86565b82525050565b6000602082019050611fbc6000830184611f98565b92915050565b6000604082019050611fd76000830185611ab9565b611fe46020830184611ab9565b9392505050565b7f4e487b7100000000000000000000000000000000000000000000000000000000600052603260045260246000fd5b600060a08201905061202f600083018861183b565b61203c602083018761183b565b612049604083018661183b565b612056606083018561183b565b612063608083018461183b565b9695505050505050565b600067ffffffffffffffff82169050919050565b61208a8161206d565b82525050565b600061ffff82169050919050565b6120a781612090565b82525050565b600063ffffffff82169050919050565b6120c6816120ad565b82525050565b600060a0820190506120e16000830188611f35565b6120ee6020830187612081565b6120fb604083018661209e565b61210860608301856120bd565b61211560808301846120bd565b9695505050505050565b60008151905061212e81611879565b92915050565b60006020828403121561214a5761214961186f565b5b60006121588482850161211f565b91505092915050565b7f4e487b7100000000000000000000000000000000000000000000000000000000600052601160045260246000fd5b600061219b82611831565b91506121a683611831565b9250827fffffffffffffffffffffffffffffffffffffffffffffffffffffffffffffffff038211156121db576121da612161565b5b828201905092915050565b60006121f182611831565b91507fffffffffffffffffffffffffffffffffffffffffffffffffffffffffffffffff82141561222457612223612161565b5b600182019050919050565b600061223a82611831565b915061224583611831565b92508282101561225857612257612161565b5b828203905092915050565b7f4e487b7100000000000000000000000000000000000000000000000000000000600052602260045260246000fd5b600060028204905060018216806122aa57607f821691505b602082108114156122be576122bd612263565b5b50919050565b7f4e487b7100000000000000000000000000000000000000000000000000000000600052601260045260246000fd5b60006122fe82611831565b915061230983611831565b925082612319576123186122c4565b5b828206905092915050565b600081905092915050565b50565b600061233f600083612324565b915061234a8261232f565b600082019050919050565b600061236082612332565b9150819050919050565b600081549050919050565b600081905092915050565b60008190508160005260206000209050919050565b60006123a082611a87565b9050919050565b6123b081612395565b82525050565b60006123c283836123a7565b60208301905092915050565b60008160001c9050919050565b600073ffffffffffffffffffffffffffffffffffffffff82169050919050565b600061240e612409836123ce565b6123db565b9050919050565b600061242182546123fb565b9050919050565b6000600182019050919050565b60006124408261236a565b61244a8185612375565b935061245583612380565b8060005b8381101561248d5761246a82612415565b61247488826123b6565b975061247f83612428565b925050600181019050612459565b5085935050505092915050565b60006124a68284612435565b91508190509291505056fea2646970667358221220889dd0b519d7f5b30e3d86a210e787eaa9a1605f1fee8866e4cef4630f9f2d0764736f6c63430008080033",
  "linkReferences": {},
  "deployedLinkReferences": {}
}