{
  "address": "0x9A7f6Cf9F4a6d1c17dFE0a07331b619DFBA58aD3",
  "abi": [
    {
      "inputs": [
        {
          "internalType": "uint256",
          "name": "entranceFee",
          "type": "uint256"
        },
        {
          "internalType": "address",
          "name": "VRFCoordinatorV2",
          "type": "address"
        },
        {
          "internalType": "bytes32",
          "name": "gasLane",
          "type": "bytes32"
        },
        {
          "internalType": "uint64",
          "name": "subscriptionId",
          "type": "uint64"
        },
        {
          "internalType": "uint32",
          "name": "callbackGasLimit",
          "type": "uint32"
        }
      ],
      "stateMutability": "nonpayable",
      "type": "constructor"
    },
    {
      "inputs": [
        {
          "internalType": "address",
          "name": "have",
          "type": "address"
        },
        {
          "internalType": "address",
          "name": "want",
          "type": "address"
        }
      ],
      "name": "OnlyCoordinatorCanFulfill",
      "type": "error"
    },
    {
      "inputs": [],
      "name": "RangeOutOfBounds",
      "type": "error"
    },
    {
      "inputs": [],
      "name": "Roullete__NotEnoughEth",
      "type": "error"
    },
    {
      "inputs": [],
      "name": "Roullete_closed",
      "type": "error"
    },
    {
      "inputs": [],
      "name": "Roullete_transferFailed",
      "type": "error"
    },
    {
      "inputs": [
        {
          "internalType": "uint256",
          "name": "currentBalance",
          "type": "uint256"
        },
        {
          "internalType": "uint256",
          "name": "Bplayers",
          "type": "uint256"
        },
        {
          "internalType": "uint256",
          "name": "Rplayers",
          "type": "uint256"
        },
        {
          "internalType": "uint256",
          "name": "Gplayers",
          "type": "uint256"
        },
        {
          "internalType": "uint256",
          "name": "roulleteState",
          "type": "uint256"
        }
      ],
      "name": "Roullete_upKeepNotNeeded",
      "type": "error"
    },
    {
      "anonymous": false,
      "inputs": [
        {
          "indexed": true,
          "internalType": "address",
          "name": "player",
          "type": "address"
        }
      ],
      "name": "RoulleteEnter",
      "type": "event"
    },
    {
      "anonymous": false,
      "inputs": [
        {
          "indexed": true,
          "internalType": "uint256",
          "name": "requestId",
          "type": "uint256"
        }
      ],
      "name": "requestedRoulleteResult",
      "type": "event"
    },
    {
      "anonymous": false,
      "inputs": [
        {
          "indexed": true,
          "internalType": "address payable[]",
          "name": "winner",
          "type": "address[]"
        }
      ],
      "name": "winnerpicked",
      "type": "event"
    },
    {
      "inputs": [],
      "name": "amountOfWinners",
      "outputs": [
        {
          "internalType": "uint256",
          "name": "",
          "type": "uint256"
        }
      ],
      "stateMutability": "view",
      "type": "function"
    },
    {
      "inputs": [
        {
          "internalType": "bytes",
          "name": "",
          "type": "bytes"
        }
      ],
      "name": "checkUpkeep",
      "outputs": [
        {
          "internalType": "bool",
          "name": "upkeepNeeded",
          "type": "bool"
        },
        {
          "internalType": "bytes",
          "name": "",
          "type": "bytes"
        }
      ],
      "stateMutability": "view",
      "type": "function"
    },
    {
      "inputs": [],
      "name": "enterBlack",
      "outputs": [],
      "stateMutability": "payable",
      "type": "function"
    },
    {
      "inputs": [],
      "name": "enterGreen",
      "outputs": [],
      "stateMutability": "payable",
      "type": "function"
    },
    {
      "inputs": [],
      "name": "enterRed",
      "outputs": [],
      "stateMutability": "payable",
      "type": "function"
    },
    {
      "inputs": [
        {
          "internalType": "uint256",
          "name": "index",
          "type": "uint256"
        }
      ],
      "name": "getBlackPlayer",
      "outputs": [
        {
          "internalType": "address",
          "name": "",
          "type": "address"
        }
      ],
      "stateMutability": "view",
      "type": "function"
    },
    {
      "inputs": [],
      "name": "getChanceArray",
      "outputs": [
        {
          "internalType": "uint256[3]",
          "name": "",
          "type": "uint256[3]"
        }
      ],
      "stateMutability": "pure",
      "type": "function"
    },
    {
      "inputs": [],
      "name": "getEntraceFee",
      "outputs": [
        {
          "internalType": "uint256",
          "name": "",
          "type": "uint256"
        }
      ],
      "stateMutability": "view",
      "type": "function"
    },
    {
      "inputs": [
        {
          "internalType": "uint256",
          "name": "index",
          "type": "uint256"
        }
      ],
      "name": "getGreenPlayer",
      "outputs": [
        {
          "internalType": "address",
          "name": "",
          "type": "address"
        }
      ],
      "stateMutability": "view",
      "type": "function"
    },
    {
      "inputs": [],
      "name": "getInterval",
      "outputs": [
        {
          "internalType": "uint256",
          "name": "",
          "type": "uint256"
        }
      ],
      "stateMutability": "pure",
      "type": "function"
    },
    {
      "inputs": [],
      "name": "getLatestTimeStamp",
      "outputs": [
        {
          "internalType": "uint256",
          "name": "",
          "type": "uint256"
        }
      ],
      "stateMutability": "view",
      "type": "function"
    },
    {
      "inputs": [],
      "name": "getNumWords",
      "outputs": [
        {
          "internalType": "uint256",
          "name": "",
          "type": "uint256"
        }
      ],
      "stateMutability": "pure",
      "type": "function"
    },
    {
      "inputs": [],
      "name": "getNumberOfPlayersOfBlack",
      "outputs": [
        {
          "internalType": "uint256",
          "name": "",
          "type": "uint256"
        }
      ],
      "stateMutability": "view",
      "type": "function"
    },
    {
      "inputs": [],
      "name": "getNumberOfPlayersOfGreen",
      "outputs": [
        {
          "internalType": "uint256",
          "name": "",
          "type": "uint256"
        }
      ],
      "stateMutability": "view",
      "type": "function"
    },
    {
      "inputs": [],
      "name": "getNumberOfPlayersOfRed",
      "outputs": [
        {
          "internalType": "uint256",
          "name": "",
          "type": "uint256"
        }
      ],
      "stateMutability": "view",
      "type": "function"
    },
    {
      "inputs": [
        {
          "internalType": "uint256",
          "name": "index",
          "type": "uint256"
        }
      ],
      "name": "getRecentWinners",
      "outputs": [
        {
          "internalType": "address",
          "name": "",
          "type": "address"
        }
      ],
      "stateMutability": "view",
      "type": "function"
    },
    {
      "inputs": [
        {
          "internalType": "uint256",
          "name": "index",
          "type": "uint256"
        }
      ],
      "name": "getRedPlayer",
      "outputs": [
        {
          "internalType": "address",
          "name": "",
          "type": "address"
        }
      ],
      "stateMutability": "view",
      "type": "function"
    },
    {
      "inputs": [],
      "name": "getRequestConfirmations",
      "outputs": [
        {
          "internalType": "uint256",
          "name": "",
          "type": "uint256"
        }
      ],
      "stateMutability": "pure",
      "type": "function"
    },
    {
      "inputs": [
        {
          "internalType": "uint256",
          "name": "chance",
          "type": "uint256"
        }
      ],
      "name": "getWinningBet",
      "outputs": [
        {
          "internalType": "enum Roullete.Bets",
          "name": "",
          "type": "uint8"
        }
      ],
      "stateMutability": "pure",
      "type": "function"
    },
    {
      "inputs": [],
      "name": "getgasLane",
      "outputs": [
        {
          "internalType": "bytes32",
          "name": "",
          "type": "bytes32"
        }
      ],
      "stateMutability": "view",
      "type": "function"
    },
    {
      "inputs": [],
      "name": "getroulletestate",
      "outputs": [
        {
          "internalType": "enum Roullete.RoulleteState",
          "name": "",
          "type": "uint8"
        }
      ],
      "stateMutability": "view",
      "type": "function"
    },
    {
      "inputs": [
        {
          "internalType": "bytes",
          "name": "",
          "type": "bytes"
        }
      ],
      "name": "performUpkeep",
      "outputs": [],
      "stateMutability": "nonpayable",
      "type": "function"
    },
    {
      "inputs": [
        {
          "internalType": "uint256",
          "name": "requestId",
          "type": "uint256"
        },
        {
          "internalType": "uint256[]",
          "name": "randomWords",
          "type": "uint256[]"
        }
      ],
      "name": "rawFulfillRandomWords",
      "outputs": [],
      "stateMutability": "nonpayable",
      "type": "function"
    },
    {
      "stateMutability": "payable",
      "type": "receive"
    }
  ],
  "transactionHash": "0x63510708c3aeda41de1798d775a0d0f02ac9ef2a597efd6b52bd31d5869dbd0b",
  "args": [
    "100000000000000000",
    "0x2Ca8E0C643bDe4C2E08ab1fA0da3401AdAD7734D",
    "0x79d3d8832d904592c0bf9818b621522c988bb8b0c05cdc3b15aea1b6e8db0c15",
    "2598",
    "500000"
  ],
  "numDeployments": 2,
  "solcInputHash": "7767629b872e05b80902b5ad963999ab",
  "bytecode": "0x6101406040523480156200001257600080fd5b506040516200241c3803806200241c83398181016040528101906200003891906200028a565b838073ffffffffffffffffffffffffffffffffffffffff1660808173ffffffffffffffffffffffffffffffffffffffff1681525050508460a081815250508373ffffffffffffffffffffffffffffffffffffffff1660c08173ffffffffffffffffffffffffffffffffffffffff16815250508260e081815250508167ffffffffffffffff166101008167ffffffffffffffff16815250508063ffffffff166101208163ffffffff16815250506000600560006101000a81548160ff021916908360018111156200010d576200010c62000312565b5b021790555042600381905550505050505062000341565b600080fd5b6000819050919050565b6200013e8162000129565b81146200014a57600080fd5b50565b6000815190506200015e8162000133565b92915050565b600073ffffffffffffffffffffffffffffffffffffffff82169050919050565b6000620001918262000164565b9050919050565b620001a38162000184565b8114620001af57600080fd5b50565b600081519050620001c38162000198565b92915050565b6000819050919050565b620001de81620001c9565b8114620001ea57600080fd5b50565b600081519050620001fe81620001d3565b92915050565b600067ffffffffffffffff82169050919050565b620002238162000204565b81146200022f57600080fd5b50565b600081519050620002438162000218565b92915050565b600063ffffffff82169050919050565b620002648162000249565b81146200027057600080fd5b50565b600081519050620002848162000259565b92915050565b600080600080600060a08688031215620002a957620002a862000124565b5b6000620002b9888289016200014d565b9550506020620002cc88828901620001b2565b9450506040620002df88828901620001ed565b9350506060620002f28882890162000232565b9250506080620003058882890162000273565b9150509295509295909350565b7f4e487b7100000000000000000000000000000000000000000000000000000000600052602160045260246000fd5b60805160a05160c05160e0516101005161012051612068620003b46000396000610a8201526000610a5f015260008181610a3e0152610efc01526000610a02015260008181610535015281816107b901528181610c3d0152610f6c0152600081816106b1015261070501526120686000f3fe6080604052600436106101445760003560e01c80635a319963116100b6578063c235615a1161006f578063c235615a1461040d578063c5e1ae0e14610438578063ca5953b214610463578063ce147cf3146104a0578063daebbd55146104cb578063efc5f537146104f65761014b565b80635a319963146102e65780635dacf5f4146103235780635f1b0fd81461034e5780636e04ff0d1461037957806390e20b11146103b757806391ad27b4146103e25761014b565b80632fd31484116101085780632fd31484146101f5578063320229eb146102205780634585e33b1461024b57806350f1126b1461027457806353a2c19a146102b15780635541e758146102dc5761014b565b806306170dea1461015057806306b188b61461015a5780631fe543e314610185578063247abaca146101ae5780632bacb08b146101eb5761014b565b3661014b57005b600080fd5b610158610533565b005b34801561016657600080fd5b5061016f6106a2565b60405161017c91906114a3565b60405180910390f35b34801561019157600080fd5b506101ac60048036038101906101a79190611657565b6106af565b005b3480156101ba57600080fd5b506101d560048036038101906101d091906116b3565b61076f565b6040516101e29190611721565b60405180910390f35b6101f36107b7565b005b34801561020157600080fd5b5061020a610926565b60405161021791906114a3565b60405180910390f35b34801561022c57600080fd5b50610235610932565b60405161024291906114a3565b60405180910390f35b34801561025757600080fd5b50610272600480360381019061026d9190611797565b61093c565b005b34801561028057600080fd5b5061029b600480360381019061029691906116b3565b610b4a565b6040516102a8919061185b565b60405180910390f35b3480156102bd57600080fd5b506102c6610c2c565b6040516102d391906114a3565b60405180910390f35b6102e4610c3b565b005b3480156102f257600080fd5b5061030d600480360381019061030891906116b3565b610daa565b60405161031a9190611721565b60405180910390f35b34801561032f57600080fd5b50610338610df1565b6040516103459190611921565b60405180910390f35b34801561035a57600080fd5b50610363610e1c565b60405161037091906114a3565b60405180910390f35b34801561038557600080fd5b506103a0600480360381019061039b91906119f1565b610e29565b6040516103ae929190611add565b60405180910390f35b3480156103c357600080fd5b506103cc610ed5565b6040516103d991906114a3565b60405180910390f35b3480156103ee57600080fd5b506103f7610ee2565b60405161040491906114a3565b60405180910390f35b34801561041957600080fd5b50610422610eeb565b60405161042f91906114a3565b60405180910390f35b34801561044457600080fd5b5061044d610ef8565b60405161045a9190611b26565b60405180910390f35b34801561046f57600080fd5b5061048a600480360381019061048591906116b3565b610f20565b6040516104979190611721565b60405180910390f35b3480156104ac57600080fd5b506104b5610f68565b6040516104c291906114a3565b60405180910390f35b3480156104d757600080fd5b506104e0610f90565b6040516104ed9190611b89565b60405180910390f35b34801561050257600080fd5b5061051d600480360381019061051891906116b3565b610fa7565b60405161052a9190611721565b60405180910390f35b7f000000000000000000000000000000000000000000000000000000000000000034101561058d576040517fecbc979a00000000000000000000000000000000000000000000000000000000815260040160405180910390fd5b600060018111156105a1576105a06117e4565b5b600560009054906101000a900460ff1660018111156105c3576105c26117e4565b5b146105fa576040517fb0c6c11500000000000000000000000000000000000000000000000000000000815260040160405180910390fd5b6000339080600181540180825580915050600190039060005260206000200160009091909190916101000a81548173ffffffffffffffffffffffffffffffffffffffff021916908373ffffffffffffffffffffffffffffffffffffffff1602179055503373ffffffffffffffffffffffffffffffffffffffff167f9836af9e2b5272cced48d1370342a33fd92052e2ccf9452759d4a265f8e0710b60405160405180910390a2565b6000600280549050905090565b7f000000000000000000000000000000000000000000000000000000000000000073ffffffffffffffffffffffffffffffffffffffff163373ffffffffffffffffffffffffffffffffffffffff161461076157337f00000000000000000000000000000000000000000000000000000000000000006040517f1cf993f4000000000000000000000000000000000000000000000000000000008152600401610758929190611ba4565b60405180910390fd5b61076b8282610fef565b5050565b60006001828154811061078557610784611bcd565b5b9060005260206000200160009054906101000a900473ffffffffffffffffffffffffffffffffffffffff169050919050565b7f0000000000000000000000000000000000000000000000000000000000000000341015610811576040517fecbc979a00000000000000000000000000000000000000000000000000000000815260040160405180910390fd5b60006001811115610825576108246117e4565b5b600560009054906101000a900460ff166001811115610847576108466117e4565b5b1461087e576040517fb0c6c11500000000000000000000000000000000000000000000000000000000815260040160405180910390fd5b6002339080600181540180825580915050600190039060005260206000200160009091909190916101000a81548173ffffffffffffffffffffffffffffffffffffffff021916908373ffffffffffffffffffffffffffffffffffffffff1602179055503373ffffffffffffffffffffffffffffffffffffffff167f9836af9e2b5272cced48d1370342a33fd92052e2ccf9452759d4a265f8e0710b60405160405180910390a2565b60008080549050905090565b6000600354905090565b600061095660405180602001604052806000815250610e29565b509050806109d35747600280549050600080549050600180549050600560009054906101000a900460ff166001811115610993576109926117e4565b5b6040517f90262e310000000000000000000000000000000000000000000000000000000081526004016109ca959493929190611bfc565b60405180910390fd5b6001600560006101000a81548160ff021916908360018111156109f9576109f86117e4565b5b021790555060007f000000000000000000000000000000000000000000000000000000000000000073ffffffffffffffffffffffffffffffffffffffff16635d3b1d307f00000000000000000000000000000000000000000000000000000000000000007f000000000000000000000000000000000000000000000000000000000000000060037f000000000000000000000000000000000000000000000000000000000000000060016040518663ffffffff1660e01b8152600401610ac3959493929190611cae565b602060405180830381600087803b158015610add57600080fd5b505af1158015610af1573d6000803e3d6000fd5b505050506040513d601f19601f82011682018060405250810190610b159190611d16565b9050807f4ff16b3fc94bbf92ec93fec52025caadbcf9e22b038e9675c6dbdec0fe60c09060405160405180910390a250505050565b600080600090506000610b5b610df1565b905060005b6003811015610bf457828510158015610b9a5750818160038110610b8757610b86611bcd565b5b602002015183610b979190611d72565b85105b15610bbc57806002811115610bb257610bb16117e4565b5b9350505050610c27565b818160038110610bcf57610bce611bcd565b5b602002015183610bdf9190611d72565b92508080610bec90611dc8565b915050610b60565b506040517f0655dc2500000000000000000000000000000000000000000000000000000000815260040160405180910390fd5b919050565b6000600163ffffffff16905090565b7f0000000000000000000000000000000000000000000000000000000000000000341015610c95576040517fecbc979a00000000000000000000000000000000000000000000000000000000815260040160405180910390fd5b60006001811115610ca957610ca86117e4565b5b600560009054906101000a900460ff166001811115610ccb57610cca6117e4565b5b14610d02576040517fb0c6c11500000000000000000000000000000000000000000000000000000000815260040160405180910390fd5b6001339080600181540180825580915050600190039060005260206000200160009091909190916101000a81548173ffffffffffffffffffffffffffffffffffffffff021916908373ffffffffffffffffffffffffffffffffffffffff1602179055503373ffffffffffffffffffffffffffffffffffffffff167f9836af9e2b5272cced48d1370342a33fd92052e2ccf9452759d4a265f8e0710b60405160405180910390a2565b6000808281548110610dbf57610dbe611bcd565b5b9060005260206000200160009054906101000a900473ffffffffffffffffffffffffffffffffffffffff169050919050565b610df961136f565b604051806060016040528060318152602001603181526020016064815250905090565b6000600361ffff16905090565b600060606000806001811115610e4257610e416117e4565b5b600560009054906101000a900460ff166001811115610e6457610e636117e4565b5b1490506000601e60035442610e799190611e11565b1190506000806002805490501180610e95575060008080549050115b80610ea557506000600180549050115b905060008047119050838015610eb85750825b8015610ec15750815b8015610eca5750805b955050505050915091565b6000600480549050905090565b6000601e905090565b6000600180549050905090565b60007f0000000000000000000000000000000000000000000000000000000000000000905090565b600060028281548110610f3657610f35611bcd565b5b9060005260206000200160009054906101000a900473ffffffffffffffffffffffffffffffffffffffff169050919050565b60007f0000000000000000000000000000000000000000000000000000000000000000905090565b6000600560009054906101000a900460ff16905090565b600060048281548110610fbd57610fbc611bcd565b5b9060005260206000200160009054906101000a900473ffffffffffffffffffffffffffffffffffffffff169050919050565b600060648260008151811061100757611006611bcd565b5b60200260200101516110199190611e74565b9050600061102682610b4a565b90506000600281111561103c5761103b6117e4565b5b81600281111561104f5761104e6117e4565b5b141561106d5760006004908054611067929190611391565b506110c7565b60016002811115611081576110806117e4565b5b816002811115611094576110936117e4565b5b14156110b257600260049080546110ac929190611391565b506110c6565b600160049080546110c4929190611391565b505b5b42600381905550600067ffffffffffffffff8111156110e9576110e8611514565b5b6040519080825280602002602001820160405280156111175781602001602082028036833780820191505090505b506000908051906020019061112d9291906113e3565b50600067ffffffffffffffff81111561114957611148611514565b5b6040519080825280602002602001820160405280156111775781602001602082028036833780820191505090505b506002908051906020019061118d9291906113e3565b50600067ffffffffffffffff8111156111a9576111a8611514565b5b6040519080825280602002602001820160405280156111d75781602001602082028036833780820191505090505b50600190805190602001906111ed9291906113e3565b5060005b6004805490508110156112fa5760006004828154811061121457611213611bcd565b5b9060005260206000200160009054906101000a900473ffffffffffffffffffffffffffffffffffffffff1673ffffffffffffffffffffffffffffffffffffffff1666470de4df82000060405161126990611ed6565b60006040518083038185875af1925050503d80600081146112a6576040519150601f19603f3d011682016040523d82523d6000602084013e6112ab565b606091505b50509050806112e6576040517f0d34c7ce00000000000000000000000000000000000000000000000000000000815260040160405180910390fd5b5080806112f290611dc8565b9150506111f1565b50600460405161130a919061201b565b60405180910390207f80624e43dc2be5bdb3a00067a406d64c2632d004437308e62c32f3b97790dd8260405160405180910390a26000600560006101000a81548160ff02191690836001811115611364576113636117e4565b5b021790555050505050565b6040518060600160405280600390602082028036833780820191505090505090565b8280548282559060005260206000209081019282156113d25760005260206000209182015b828111156113d15782548255916001019190600101906113b6565b5b5090506113df919061146d565b5090565b82805482825590600052602060002090810192821561145c579160200282015b8281111561145b5782518260006101000a81548173ffffffffffffffffffffffffffffffffffffffff021916908373ffffffffffffffffffffffffffffffffffffffff16021790555091602001919060010190611403565b5b509050611469919061146d565b5090565b5b8082111561148657600081600090555060010161146e565b5090565b6000819050919050565b61149d8161148a565b82525050565b60006020820190506114b86000830184611494565b92915050565b6000604051905090565b600080fd5b600080fd5b6114db8161148a565b81146114e657600080fd5b50565b6000813590506114f8816114d2565b92915050565b600080fd5b6000601f19601f8301169050919050565b7f4e487b7100000000000000000000000000000000000000000000000000000000600052604160045260246000fd5b61154c82611503565b810181811067ffffffffffffffff8211171561156b5761156a611514565b5b80604052505050565b600061157e6114be565b905061158a8282611543565b919050565b600067ffffffffffffffff8211156115aa576115a9611514565b5b602082029050602081019050919050565b600080fd5b60006115d36115ce8461158f565b611574565b905080838252602082019050602084028301858111156115f6576115f56115bb565b5b835b8181101561161f578061160b88826114e9565b8452602084019350506020810190506115f8565b5050509392505050565b600082601f83011261163e5761163d6114fe565b5b813561164e8482602086016115c0565b91505092915050565b6000806040838503121561166e5761166d6114c8565b5b600061167c858286016114e9565b925050602083013567ffffffffffffffff81111561169d5761169c6114cd565b5b6116a985828601611629565b9150509250929050565b6000602082840312156116c9576116c86114c8565b5b60006116d7848285016114e9565b91505092915050565b600073ffffffffffffffffffffffffffffffffffffffff82169050919050565b600061170b826116e0565b9050919050565b61171b81611700565b82525050565b60006020820190506117366000830184611712565b92915050565b600080fd5b60008083601f840112611757576117566114fe565b5b8235905067ffffffffffffffff8111156117745761177361173c565b5b6020830191508360018202830111156117905761178f6115bb565b5b9250929050565b600080602083850312156117ae576117ad6114c8565b5b600083013567ffffffffffffffff8111156117cc576117cb6114cd565b5b6117d885828601611741565b92509250509250929050565b7f4e487b7100000000000000000000000000000000000000000000000000000000600052602160045260246000fd5b60038110611824576118236117e4565b5b50565b600081905061183582611813565b919050565b600061184582611827565b9050919050565b6118558161183a565b82525050565b6000602082019050611870600083018461184c565b92915050565b600060039050919050565b600081905092915050565b6000819050919050565b61189f8161148a565b82525050565b60006118b18383611896565b60208301905092915050565b6000602082019050919050565b6118d381611876565b6118dd8184611881565b92506118e88261188c565b8060005b8381101561191957815161190087826118a5565b965061190b836118bd565b9250506001810190506118ec565b505050505050565b600060608201905061193660008301846118ca565b92915050565b600080fd5b600067ffffffffffffffff82111561195c5761195b611514565b5b61196582611503565b9050602081019050919050565b82818337600083830152505050565b600061199461198f84611941565b611574565b9050828152602081018484840111156119b0576119af61193c565b5b6119bb848285611972565b509392505050565b600082601f8301126119d8576119d76114fe565b5b81356119e8848260208601611981565b91505092915050565b600060208284031215611a0757611a066114c8565b5b600082013567ffffffffffffffff811115611a2557611a246114cd565b5b611a31848285016119c3565b91505092915050565b60008115159050919050565b611a4f81611a3a565b82525050565b600081519050919050565b600082825260208201905092915050565b60005b83811015611a8f578082015181840152602081019050611a74565b83811115611a9e576000848401525b50505050565b6000611aaf82611a55565b611ab98185611a60565b9350611ac9818560208601611a71565b611ad281611503565b840191505092915050565b6000604082019050611af26000830185611a46565b8181036020830152611b048184611aa4565b90509392505050565b6000819050919050565b611b2081611b0d565b82525050565b6000602082019050611b3b6000830184611b17565b92915050565b60028110611b5257611b516117e4565b5b50565b6000819050611b6382611b41565b919050565b6000611b7382611b55565b9050919050565b611b8381611b68565b82525050565b6000602082019050611b9e6000830184611b7a565b92915050565b6000604082019050611bb96000830185611712565b611bc66020830184611712565b9392505050565b7f4e487b7100000000000000000000000000000000000000000000000000000000600052603260045260246000fd5b600060a082019050611c116000830188611494565b611c1e6020830187611494565b611c2b6040830186611494565b611c386060830185611494565b611c456080830184611494565b9695505050505050565b600067ffffffffffffffff82169050919050565b611c6c81611c4f565b82525050565b600061ffff82169050919050565b611c8981611c72565b82525050565b600063ffffffff82169050919050565b611ca881611c8f565b82525050565b600060a082019050611cc36000830188611b17565b611cd06020830187611c63565b611cdd6040830186611c80565b611cea6060830185611c9f565b611cf76080830184611c9f565b9695505050505050565b600081519050611d10816114d2565b92915050565b600060208284031215611d2c57611d2b6114c8565b5b6000611d3a84828501611d01565b91505092915050565b7f4e487b7100000000000000000000000000000000000000000000000000000000600052601160045260246000fd5b6000611d7d8261148a565b9150611d888361148a565b9250827fffffffffffffffffffffffffffffffffffffffffffffffffffffffffffffffff03821115611dbd57611dbc611d43565b5b828201905092915050565b6000611dd38261148a565b91507fffffffffffffffffffffffffffffffffffffffffffffffffffffffffffffffff821415611e0657611e05611d43565b5b600182019050919050565b6000611e1c8261148a565b9150611e278361148a565b925082821015611e3a57611e39611d43565b5b828203905092915050565b7f4e487b7100000000000000000000000000000000000000000000000000000000600052601260045260246000fd5b6000611e7f8261148a565b9150611e8a8361148a565b925082611e9a57611e99611e45565b5b828206905092915050565b600081905092915050565b50565b6000611ec0600083611ea5565b9150611ecb82611eb0565b600082019050919050565b6000611ee182611eb3565b9150819050919050565b600081549050919050565b600081905092915050565b60008190508160005260206000209050919050565b6000611f21826116e0565b9050919050565b611f3181611f16565b82525050565b6000611f438383611f28565b60208301905092915050565b60008160001c9050919050565b600073ffffffffffffffffffffffffffffffffffffffff82169050919050565b6000611f8f611f8a83611f4f565b611f5c565b9050919050565b6000611fa28254611f7c565b9050919050565b6000600182019050919050565b6000611fc182611eeb565b611fcb8185611ef6565b9350611fd683611f01565b8060005b8381101561200e57611feb82611f96565b611ff58882611f37565b975061200083611fa9565b925050600181019050611fda565b5085935050505092915050565b60006120278284611fb6565b91508190509291505056fea2646970667358221220df1519c19be4f3c5584a9481210552206af3eed73d12aab07525f54ca083eb9864736f6c63430008090033",
  "devdoc": {
    "kind": "dev",
    "methods": {
      "checkUpkeep(bytes)": {
        "details": "alex kang  this is the function chainlink keeper calls, they look for the upkeepneeded  the following should be true in order to return true 1. TIME INTERVAL SHOULD BE PASSED 2. lottery should have at least 1 player and some eth  3.subscription funded with LINK 4. LOTTERY should be in an \"open\" state --> when we are waiting for the number to get back we are in a closed state "
      }
    },
    "version": 1
  },
  "userdoc": {
    "kind": "user",
    "methods": {},
    "version": 1
  },
  "storageLayout": {
    "storage": [
      {
        "astId": 245,
        "contract": "contracts/Roullete.sol:Roullete",
        "label": "s_RedPlayers",
        "offset": 0,
        "slot": "0",
        "type": "t_array(t_address_payable)dyn_storage"
      },
      {
        "astId": 248,
        "contract": "contracts/Roullete.sol:Roullete",
        "label": "s_GreenPlayers",
        "offset": 0,
        "slot": "1",
        "type": "t_array(t_address_payable)dyn_storage"
      },
      {
        "astId": 251,
        "contract": "contracts/Roullete.sol:Roullete",
        "label": "s_BlackPlayers",
        "offset": 0,
        "slot": "2",
        "type": "t_array(t_address_payable)dyn_storage"
      },
      {
        "astId": 268,
        "contract": "contracts/Roullete.sol:Roullete",
        "label": "s_lastTimeStamp",
        "offset": 0,
        "slot": "3",
        "type": "t_uint256"
      },
      {
        "astId": 290,
        "contract": "contracts/Roullete.sol:Roullete",
        "label": "s_recentWinners",
        "offset": 0,
        "slot": "4",
        "type": "t_array(t_address_payable)dyn_storage"
      },
      {
        "astId": 293,
        "contract": "contracts/Roullete.sol:Roullete",
        "label": "s_roulleteState",
        "offset": 0,
        "slot": "5",
        "type": "t_enum(RoulleteState)236"
      }
    ],
    "types": {
      "t_address_payable": {
        "encoding": "inplace",
        "label": "address payable",
        "numberOfBytes": "20"
      },
      "t_array(t_address_payable)dyn_storage": {
        "base": "t_address_payable",
        "encoding": "dynamic_array",
        "label": "address payable[]",
        "numberOfBytes": "32"
      },
      "t_enum(RoulleteState)236": {
        "encoding": "inplace",
        "label": "enum Roullete.RoulleteState",
        "numberOfBytes": "1"
      },
      "t_uint256": {
        "encoding": "inplace",
        "label": "uint256",
        "numberOfBytes": "32"
      }
    }
  }
}